:02000002D0002C
:1040000000400D00105A0D00000006000C000501D4
:0840100004014E040000000051
:10401800DC550D0009480A49884208B505D0094A07
:10402800824202D0121A01F091FA0748074A002189
:10403800121A01F096FA014808BD00BF54E40320A3
:1040480080590D00BCE40320BCE40320F0E7032002
:1040580070B500F00DFF074C074BE41AA4080025C3
:104068001E46A54204D056F8253098470135F8E792
:1040780070BD00BF78590D0030590D0000F016B81A
:1040880008B500F02BF8BDE8084000F0BFBE00F00E
:10409800AFBB00F0B5BB00F0B3BB0078B0FA80F05E
:1040A80040097047012303707047704708B500F056
:1040B800EBFD4FF4165100F0DBFD01225A210548B3
:1040C80000F0C6F928B900F0DFFD034900F049FF08
:1040D800FEE708BDC0E40320F0550D00F7B55E48C3
:1040E80000F032F9002800F0B58000F0CDFD5B4902
:1040F80000F037FF00F0C8FD594900F032FF0024F6
:1041080001F086F85A2100F06AFD01F081F8036891
:10411800A11C9B68C9B2C4F108069847F6B201F021
:1041280077F800F063FD01F073F832465A2100F089
:104138004DFD002501F06CF803685B699847C7B22C
:1041480000F0A2FD0A22294600F070FF00F09CFD55
:10415800444900F0F3FE00F097FD0A22394600F0CA
:1041680039FF02AB234401350134AE4203F8087C21
:10417800E4B2DFDC072CC3D900F086FD3A4900F031
:10418800F0FE9DF801309DF8004043EA042400F059
:104198007BFD364900F0D2FE00F076FD314900F093
:1041A800CDFE00F071FD0A22214600F041FF9DF886
:1041B80003309DF8024043EA042400F065FD2C49D1
:1041C80000F0BCFE00F060FD264900F0B7FE00F0EC
:1041D8005BFD0A22214600F02BFF9DF8054000F008
:1041E80053FD244900F0AAFE00F04EFD1D4900F0E1
:1041F800A5FE00F049FD0A22214600F0EBFE9DF8DD
:10420800064000F041FD1C4900F098FE00F03CFD1E
:10421800144900F093FE00F037FD0A22A10800F0CF
:10422800D9FE24029DF8073004F440741C4300F0C2
:104238002BFD124900F082FE00F026FD094900F02E
:104248007DFE00F021FD0A22214603B0BDE8F040C2
:1042580000F0EEBE03B0F0BDC0E4032009560D0027
:104268000D560D00AA570D001F560D002C560D00B7
:1042780031560D0036560D003C560D0044560D00C3
:1042880008B500F021FA034A03490448BDE808408C
:1042980001F000B8BCE40320B3400D00C0E40320E3
:1042A80000F012BA0078800000F07C00704708B572
:1042B80000F0AEFFBDE8084000F076BC2DE9F84FED
:1042C80007468A4691469846002444452FD2C4EBB7
:1042D8000805EDB2202D28BF202500F099FF397878
:1042E80000F079FC00F094FF036804EB0A019B6876
:1042F800C9B2984700F08CFF00F078FC00F088FF06
:104308002A46397800F05FFC002604EB060BAE4223
:104318005FFA8BFB02DB2C44E4B2D6E700F078FFAF
:1043280003685B699847013609F80B00EDE7BDE8BB
:10433800F88F07B501230DF10702FFF7BFFF9DF8BE
:10434800070003B05DF804FB10B500210446FFF731
:10435800F0FF237BC21060F3000362F341030211F4
:1043680062F38203C209184662F3C3002073C0F3E4
:10437800400010BD10B500210446FFF7DAFF237B8B
:10438800C21060F3000362F34103021162F3820377
:10439800C209184662F3C300207300F0010010BD83
:1043A800F8B5074615461E460C4600F031FF397829
:1043B80000F011FC00F02CFF036821469B68984729
:1043C80000F026FF03683246DC682946A04700F063
:1043D8001FFFBDE8F84000F009BC000013B5064B0C
:1043E80004461868019004230DEB0302FF212046C0
:1043F800FFF7D6FF02B010BD4C560D0013B502AC46
:10440800012304F8012D2246FFF7CAFF02B010BDB0
:1044180010B5437B61F38403044600F80D3FFFF7B2
:1044280041FF012102462046BDE81040FFF7E6BFE4
:1044380010B5437B6FF34103044600F80D3FFFF7C7
:1044480031FF012102462046BDE81040FFF7D6BFE4
:1044580038B5017004461546FFF729FF2046FFF7D7
:10446800BDFF642000F0B1FC20212046FFF761FF6A
:10447800812801D0002038BD00231A46F4212046A7
:10448800FFF78EFF642000F0A0FC2046FFF772FFC4
:104498000028EFD1237B1B07ECD52046FFF7C8FF88
:1044A80020462946FFF7B4FF012038BD00F00CB9BB
:1044B80000F00AB900F008B908B5024B1B681B6880
:1044C800019308BD4C02030008B5024B1B685B68EA
:1044D800019308BD4C02030008B5024B1B681B6919
:1044E800019308BD4C02030008B5024B1B685B69C9
:1044F800019308BD4C02030008B5024B1B689B6979
:10450800019308BD4C02030008B5024B1B68DB6928
:10451800019308BD4C02030008B5024B1B681B6AD7
:10452800019308BD4C02030008B5024B1B68DB6809
:10453800019308BD2802030008B5024B1B685B699C
:10454800019308BD2802030008B5024B1B689B694C
:10455800019308BD2802030008B5024B1B68DB69FC
:10456800019308BD2802030008B5024B1B681B6AAB
:10457800019308BD2802030008B5024B1B685B6A5B
:10458800019308BD2802030008B5024B1B689B6A0B
:10459800019308BD2802030008B5024B1B68DB6ABB
:1045A800019308BD2802030008B5024B1B681B6B6A
:1045B800019308BD2802030008B5024B1B681B6C59
:1045C800019308BD2802030008B5024B1B681B684D
:1045D800019308BD3C02030008B5024B1B68DB6869
:1045E800019308BD3C02030008B5024B1B681B6918
:1045F800019308BD3C02030008B5024B1B685B69C8
:10460800019308BD3C02030008B5024B1B689B6977
:10461800019308BD3C02030008B5024B1B68DB6927
:10462800019308BD3C02030008B5024B1B689B6A56
:10463800019308BD3C02030008B5024B1B685B6987
:10464800019308BD6402030008B5024B1B689B6810
:10465800019308BD4802030008B5024B1B681B699B
:10466800019308BD4802030008B5024B1B685B694B
:10467800019308BD4802030008B5024B1B681B6B79
:10468800019308BD4802030008B5024B1B685B6C28
:10469800019308BD4802030008B5024B1B685B681C
:1046A800019308BD1802030008B5024B1B685B693B
:1046B800019308BD1802030008B5024B1B68DB69AB
:1046C800019308BD3002030008B5024B1B681B6844
:1046D800019308BD2C02030008B5024B1B689B68B8
:1046E800019308BD6802030008B5024B1B68DB682C
:1046F800019308BD6802030008B5024B1B68DB6B19
:10470800019308BD4402030008B5024B1B685B68AF
:10471800019308BD4002030008B5024B1B689B6863
:10472800019308BD4002030008B5024B1B68DB6813
:10473800019308BD4002030008B5024B1B681B69C2
:10474800019308BD4002030008B5024B1B685B6972
:10475800019308BD4002030008B5024B1B689B6922
:10476800019308BD4002030008B5024B1B68DB69D2
:10477800019308BD4002030008B5024B1B681B6A81
:10478800019308BD4002030008B5024B1B681B6B70
:10479800019308BD4002030008B5024B1B685B6B20
:1047A800019308BD4002030008B5024B1B685B6813
:1047B800019308BD2002030008B5024B1B685B6922
:1047C800019308BD2002030008B5034B1B68D3F80A
:1047D8008830019308BD00002002030008B5034B90
:1047E8001B68D3F89430019308BD00002002030031
:1047F80008B5024B1B681B68019308BD1C02030027
:1048080008B5024B1B685B68019308BD1C020300D6
:1048180000231A464068FFF777BF0022022140684C
:10482800FFF782BF002211464068FFF775BF0022DC
:1048380011464068FFF780BF00231A4619464068B2
:10484800FFF782BF00231A4619464068FFF784BF66
:10485800002281F001014068FFF786BF002240680E
:10486800FFF792BF002211464068FFF795BF00226C
:1048780011464068FFF780BF2DE9F043002495B04A
:1048880016460D46074600F05FFA214620220CA87E
:10489800009400F066FE40230C9321466B460CAA58
:1048A8003046FFF721FF0446002844D10246012183
:1048B8006868FFF741FF0221804622466868FFF7D3
:1048C8003BFF009E81462146002E34D0002932D17C
:1048D8007368022B02D00A2B09D02AE0B8F1000F26
:1048E80027D071693846043100F05BFA20E0B9F14D
:1048F800000F1ED07469112201A800F032FE0623B1
:104908008DF8143001AD04F108031834186859689B
:104918002A4603C20833A3421546F7D101A906A8BF
:1049280007AD00F01FFA0FCD3C1D0FC42B68237094
:104938000121F669C8E70098FFF7CEFE384615B0A2
:10494800BDE8F083024B034A1A6000225A607047A0
:10495800D0E4032058560D00002211464068FFF7A6
:104968000BBF002211464068FFF716BF00224068BF
:10497800FFF70ABF002281F001014068FFF7F4BE8B
:1049880000231A4619464068FFF7E6BE00231A4678
:1049980019464068FFF7D8BE002211464068FFF765
:1049A800CBBE002211464068FFF7B6BE00220221A6
:1049B8004068FFF7B9BE00231A464068FFF7A4BE57
:1049C80038B5054678B1046844B1A3681BB1032221
:1049D8002146204698472046FFF75BFB2846BDE85E
:1049E8003840FFF756BB38BD10B103685B681847FD
:1049F800704710B503680446BBB15868FFF724FE3A
:104A080078B923685A7C12B95868FFF725FE2368DD
:104A18005868FFF729FE20680023236028B1FFF7B4
:104A2800CFFF206808B1FFF7CBFF204610BD00007C
:104A380038B50B4B03600446D0F8CC0108B1FFF73A
:104A48002AFBD4F8C4512DB12846FFF7D2FF2846D7
:104A5800FFF71FFBA06808B1FFF7C6FF204638BD67
:104A68008C560D0038B50D4C0D4B236000250223E4
:104A780004F5E4706360A560C4F8C451C4F8C85173
:104A8800FFF702FE074BC4F8CC5123602046064AC4
:104A98000649BDE8384000F0FDBB00BFD8E403205C
:104AA80058560D008C560D00BCE40320394A0D0001
:104AB800002211464068FFF73FBE002211464068B9
:104AC800FFF75ABE002211464068FFF765BE002274
:104AD8004068FFF759BE002281F001014068FFF7E6
:104AE80043BE00231A4619464068FFF735BE002327
:104AF8001A4619464068FFF727BE0022114640684B
:104B0800FFF70ABE002202214068FFF70DBE00230E
:104B18001A464068FFF7F8BD024B04225A60024A61
:104B28001A607047A8E60320C0560D007047F8B514
:104B3800064615460C468F18BC4206D0336814F852
:104B4800011B9B6830469847F6E72846F8BD0022C7
:104B5800007CFFF709BD0021007CFFF70DBD002197
:104B6800007CFFF711BD0021007CFFF715BD002177
:104B7800007CFFF719BD10B50446FFF78AFA2046F6
:104B880010BD000010B504464FF47A730846A360C0
:104B98000021044B207461602360FFF70DFD20465F
:104BA80010BD00BFF4560D0000231A461946007CBC
:104BB800FFF7BABC13B50024007C0094FFF7BCFCD7
:104BC800C0B202B010BD0123FFF7F4BF0123D2B277
:104BD800C9B2FFF7EFBF0022007CFFF7B5BCC9B22E
:104BE800FFF7F9BF0022007CFFF7B6BC0121FFF7F1
:104BF800F9BF4174704770470021007CFFF77CBC07
:104C08000121007CFFF778BC007CFFF76DBC007CBD
:104C1800FFF762BC38B50446007C0D46FFF764FC1C
:104C2800002801DC607C20B12946207CFFF76CFC61
:104C3800012038BD007CFFF76FBC10B50446FFF7B4
:104C480028FA204610BD000010B504460023636012
:104C58004FF47A73A360054B23600123084621743F
:104C680063741146FFF728FC204610BD1C570D0041
:104C78000022007CFFF728BC10B51422044600214E
:104C880000F06FFC204610BD30B50E4D87B001A86E
:104C9800FFF7F2FF296811F0010410D12846FFF749
:104CA800FCF960B101AA21460748FFF7CDFF284665
:104CB800FFF7F8F9054A0649034800F0EBFA0248FD
:104CC80007B030BDB0E60320B4E60320BCE40320FF
:104CD800FF4B0D00704710B50446FFF7DAF9204680
:104CE80010BDF0B5037D062B8DB00E4600F104070C
:104CF8004FF0000402D000F1080518E00CAD394669
:104D080005F8304D2F232A460A20FFF795FC284640
:104D180000F058FC33680246DB682946304698475D
:104D28000FE024B12E21304600F00CF9044415F8A8
:104D3800011D0A22304600F04BF9BD420444F0D16F
:104D480020460DB0F0BD000010B5054B04461122F9
:104D580040F8043B002100F004FC204610BD00BFD1
:104D68004C570D000346074A10B543F8042B01F1D0
:104D7800100251F8044B43F8044B9142F9D10A78D8
:104D88001A7010BD4C570D0010B59DF8084044EA44
:104D9800032343EA024242EA0161042341600375A6
:104DA80010BD37B50D788B784A78C97800912946B7
:104DB800FFF7EAFF03B030BD10B58368044613B1AE
:104DC800032201469847204610BD0021FFF7F4BC96
:104DD80008B50C4B33B1FFF757FF03681B699847B9
:104DE800002809DC084B63B100F06CF903681B6903
:104DF8009847002803DC08BDAFF30080F2E7AFF363
:104E0800008008BD000000000000000008B5FFF7A2
:104E1800DFFFFFF749FC014B186008BD2CE70320B2
:104E280007B5002300931A466FF07701FFF7D6FC09
:104E380003B05DF804FB000007B543880A2B08D0CF
:104E4800502B09D1094B1B683BB103B05DF804EB4B
:104E58001847FFF7E5FF06E0002300931A466FF0B6
:104E68007701FFF7BBFC03B05DF804FBC8E603203D
:104E780010B5FFF711FC044600F07CFB074B13B19B
:104E88002046AFF3008000210448FFF735FC0021DD
:104E98000348BDE81040FFF797BC00BF00000000C2
:104EA800414E0D0010B50446FFF786FF204610BDA1
:104EB8000348044A04490023836000F0EBB900BFAB
:104EC800CCE60320BCE40320AD4E0D00024B1A686B
:104ED800024B1A60704700BF54E40320DCE603204D
:104EE800014B024A1A607047E0E6032039580D006A
:104EF800F8B506460D468F180024BD420CD033681D
:104F080015F8011B9B6830469847002801DB0444CC
:104F1800F3E7002C08BF04462046F8BD70B50546E7
:104F28000C46084649B100F04DFB2B680246214665
:104F38002846DB68BDE87040184770BD08B5FFF724
:104F4800EDFF08BD03689B68184738B50D21054675
:104F5800FFF7F8FF0A2104462846FFF7F3FF20442D
:104F680038BD38B50546FFF7D9FF04462846FFF790
:104F7800ECFF204438BD30B58BB00B4600218DF8CE
:104F88002410012A98BF0A220DF12304B3FBF2F57D
:104F980005FB123303F0FF03092B94BF303337337B
:104FA800DBB2214604F801392B46002DEED1FFF77C
:104FB800B5FF0BB030BD10B42AB903685DF8044BD7
:104FC8009B68C9B21847D2B25DF8044BFFF7D3BF4C
:104FD800FFF7F1BF38B50546FFF7EDFF0446284651
:104FE800FFF7B3FF204438BD2DE9F04107460E46D0
:104FF80015462AB90368C9B29B68BDE8F04118474D
:105008000A2A02D1002901DA04E0D2B2BDE8F0414F
:10501800FFF7B1BF2D21FFF795FF2A4604467142DD
:105028003846FFF7A8FF2044BDE8F081FFF7DCBF52
:1050380038B50546FFF7D8FF04462846FFF785FF31
:10504800204438BD704741747047007CFFF7ECBAC4
:10505800007CFFF7C9BA007CFFF7D6BA007CFFF7DF
:10506800CBBA007CFFF7D8BA10B50446FFF711F8A1
:10507800204610BD70B5457C04460E4625B9007C17
:10508800FFF7D2FA002805DD3146207CBDE87040E4
:10509800FFF7A2BA284670BD10B504460846114667
:1050A800002262604FF47A72A260054A22600122EF
:1050B800207462741A46FFF787FA204610BD00BFB5
:1050C80064580D00F8B5194C25684DB98420FEF7D1
:1050D800DEFF064618B18422294600F042FA26600F
:1050E800134D2E684EB98420FEF7D1FF074618B13C
:1050F8008422314600F035FA2F600E4F396811F0DE
:10510800010611D13846FEF7C8FF68B122682B683E
:1051180009483146FFF7C0FF3846FEF7C3FF074A84
:105128000749054800F0B6F80348F8BD00E7032032
:10513800F8E60320FCE60320E4E60320BCE40320B1
:105148004D500D00044B00204FF6FF721870588028
:105158009A80FFF729BB00BF04E70320704710B50A
:105168000446FEF796FF204610BD000070B5084BB8
:105178000360044600250E4640F80C5FFFF77CFAF2
:1051880030462671FFF798FAA560204670BD00BF2B
:1051980094580D00002211464068FFF7EDBA00222E
:1051A80011464068FFF7F8BA00224068FFF7ECBAEA
:1051B800002281F001014068FFF7D6BA00231A46A1
:1051C80019464068FFF7C8BA00231A4619464068CE
:1051D800FFF7BABA002211464068FFF7ADBA0022BD
:1051E80011464068FFF798BA002202214068FFF78D
:1051F8009BBA00231A464068FFF786BA024B03227F
:105208005A60024A1A6070470CE70320A4580D0040
:1052180038B50B4D296811F001040FD12846FEF767
:105228003CFF58B121460748FFF7ACFC2846FEF77B
:1052380039FF054A0549034800F02CF8014838BDF4
:1052480014E7032018E70320BCE40320354B0D00C6
:1052580070B50C4C0C4E0D4D00212046FFF786FF13
:1052680020460B4C3246294600F014F8012120460E
:10527800FFF77CFF324629462046BDE8704000F023
:1052880009B800BF30E70320BCE4032065510D00D6
:1052980040E703200B460146184600F049B90000D4
:1052A800184B1A68D1075CBF01221A60164B1A689E
:1052B800D2075CBF01221A60144B1A68D0075CBF82
:1052C80001221A60124B1A68D1075CBF01221A60CA
:1052D800104B1A68D2075CBF01221A600E4B1A687D
:1052E800D0075CBF01221A600C4B1A68D1075CBF5B
:1052F80001221A600A4B1A68D2075CBF01221A60A1
:10530800704700BF6CE7032068E7032064E70320C9
:1053180060E703205CE7032058E7032054E70320F5
:1053280050E70320244B1A68D0075CBF01221A609B
:10533800224B1A68D1075CBF01221A60204B1A68F9
:10534800D2075CBF01221A601E4B1A68D0075CBFE7
:1053580001221A601C4B1A68D1075CBF01221A602F
:105368001A4B1A68D2075CBF01221A60184B1A68D8
:10537800D0075CBF01221A60164B1A68D1075CBFC0
:1053880001221A60144B1A68D2075CBF01221A6006
:10539800124B1A68D0075CBF01221A60104B1A68BA
:1053A800D1075CBF01221A600E4B1A68D2075CBF96
:1053B80001221A60704700BF9CE7032098E703208A
:1053C80094E7032090E703208CE7032088E7032075
:1053D80084E7032080E703207CE7032078E70320A5
:1053E80074E7032070E70320244B1A68D0075CBFDA
:1053F80001221A60224B1A68D1075CBF01221A6089
:10540800204B1A68D2075CBF01221A601E4B1A682B
:10541800D0075CBF01221A601C4B1A68D1075CBF19
:1054280001221A601A4B1A68D2075CBF01221A605F
:10543800184B1A68D0075CBF01221A60164B1A680D
:10544800D1075CBF01221A60144B1A68D2075CBFEF
:1054580001221A60124B1A68D0075CBF01221A6039
:10546800104B1A68D1075CBF01221A600E4B1A68EC
:10547800D2075CBF01221A60704700BFCCE7032047
:10548800C8E70320C4E70320C0E70320BCE70320E4
:10549800B8E70320B4E70320B0E70320ACE7032014
:1054A800A8E70320A4E70320A0E70320184B1A6805
:1054B800D1075CBF01221A60164B1A68D2075CBF7D
:1054C80001221A60144B1A68D0075CBF01221A60C7
:1054D800124B1A68D1075CBF01221A60104B1A6878
:1054E800D2075CBF01221A600E4B1A68D0075CBF56
:1054F80001221A600C4B1A68D1075CBF01221A609E
:105508000A4B1A68D2075CBF01221A60704700BFB5
:10551800ECE70320E8E70320E4E70320E0E70320C3
:10552800DCE70320D8E70320D4E70320D0E70320F3
:1055380010B5054C13462CB10A4601460220AFF3BC
:10554800008010BD204610BD0000000010B5431EAD
:105558000A44914204D011F8014B03F8014FF8E7CF
:1055680010BD02440346934202D003F8011BFAE738
:105578007047000038B5124B1C68A36B0546D3B9B9
:105588001820FFF735F943F20E33A06303804AF67B
:10559800CD33438041F2342383804EF26D63C38060
:1055A8004DF6EC630381052343810B23838101229C
:1055B8000023C0E90423A36B00221D615A6138BD92
:1055C800B8E40320034613F8012B002AFBD1181A6C
:1055D800013870471D400D0059400D0085400D00F1
:1055E80089400D00000000004572726F72207365DB
:1055F8007474696E67207570204343533831313BAA
:10560800002D2D2D00446174612066726F6D20435A
:1056180043533831313A00496E746572707265745B
:1056280065643A0065434F320054564F4300657233
:10563800726F720063757272656E7400766F6C7447
:105648006167650011E5728A000000000000000033
:1056580019480D0023480D002D480D0037480D004E
:1056680041480D004D480D0059480D0065480D0092
:105678006D480D0077480D0081480D0000000000BE
:1056880000000000BF490D00B5490D00AB490D00F1
:10569800A1490D0095490D0089490D007D490D006E
:1056A80075490D006B490D0061490D0081480D00D9
:1056B8000000000000000000174B0D000D4B0D000E
:1056C800034B0D00B94A0D00F74A0D00EB4A0D00D7
:1056D800DF4A0D00D74A0D00CD4A0D00C34A0D0020
:1056E80081480D000000000000000000354B0D004F
:1056F8007F4B0D00574B0D00374B0D005F4B0D00D6
:10570800674B0D006F4B0D00774B0D00000000003C
:1057180000000000FF4B0D00434C0D001D4C0D0018
:10572800F94E0D00174C0D00014C0D00094C0D00F1
:105738003D4C0D00114C0D00FB4B0D00000000000E
:1057480000000000EB4C0D00DD4C0D00DF4C0D009F
:105758005A00252B3033643A253032750025592DEF
:10576800256D2D25645425483A254D3A2553257A2B
:105778000061736374696D650066006C6E00666E27
:1057880000636F64650064657461696C000D0A00EC
:10579800253031307520005D20002564002C200064
:1057A80028293A2000205B00636F6465203D2000B3
:1057B80025690064657461696C73203D200062612D
:1057C80075640053657269616C0053657269616C38
:1057D80031007479706500706172616D00636D6489
:1057E80000696400686E64007374726D0066696CA9
:1057F80074006C766C0061646448616E646C6572F8
:105808000072656D6F766548616E646C65720065DF
:105818006E756D48616E646C657273004A534F4EC5
:1058280053747265616D4C6F6748616E646C657224
:1058380000617070006E6F6E650074726163650060
:10584800696E666F007761726E0070616E696300E1
:10585800616C6C0000000000000000004D500D005D
:1058680071500D007D500D00F94E0D0059500D007E
:1058780065500D005F500D006B500D004F500D002E
:1058880053500D00000000000000000065510D009D
:1058980067510D000000000000000000FB510D00E2
:1058A800F1510D00E7510D00DD510D00D1510D00F2
:1058B800C5510D00B9510D00B1510D00A7510D0092
:1058C8009D510D0081480D000000000000000000FF
:1058D80000000000000000000000000000000000C0
:1058E80000000000000000000000000000000000B0
:1058F80000000000000000000000000000000000A0
:10590800000000000000000000000000000000008F
:10591800000000000000000000000000000000007F
:10592800000000000000000089420D00A9420D009F
:10593800B5440D00B9440D00BD440D004D490D009E
:105948006D4A0D00214B0D00B94E0D00D54E0D00CE
:10595800E94E0D004D510D0005520D0059520D0034
:10596800A9520D002D530D00F1530D00B5540D0033
:08597800000000000000000027
:1059800079570D0000000000D0580D00F0580D00B0
:1059900010590D0000000000000000000000000091
:1059A0000000000034560D00000000000000000060
:1059B00000000000000000000000000000000000E7
:1059C00000000000000000000000000000000000D7
:1059D00000000000000000000000000000000000C7
:0859E0000000000058E4032060
:1059E800FFFFFFFF00000102030405060708090A7C
:1059F8000B0C0D0E0F101112131415161718191A77
:085A08001B1C1D1E1F202800BD
:045A1000785634127E
:04000003D0004018D1
:00000001FF
