:020000023000CC
:1000000000F003202102030065020300253E0300E7
:1000100069020300D13E0300153F03000000000009
:100020000000000000000000000000000D290A0090
:1000300071020300000000002D290A002D2A0A0089
:10004000B5A509007702030079D8090049D709004E
:1000500095D7090077020300B99E090055A409004D
:1000600015BC090029BC09003DBC0900770203004A
:100070007702030061D509007702030077020300CD
:1000800035BB090089AD090031D609002DD809001A
:1000900025D609002BD60900A1FF090081600700C1
:1000A000770203007702030051BC090065BC090018
:1000B00039AD0900E59609000000000000000000CD
:1000C0007702030049AD090059AD0900E1D70900E5
:1000D000398803008DB409007702030035F3090065
:1000E000D30704006DB409004D8D0B000000000023
:1000F0000000000069AD0900000000000DCE0900FD
:1001000000000000000000000000000000000000EF
:1001100000000000000000000000000000000000DF
:1001200000000000000000000000000000000000CF
:1001300000000000000000000000000000000000BF
:1001400000000000000000000000000000000000AF
:10015000000000000000000000000000000000009F
:10016000000000000000000000000000000000008F
:10017000000000000000000000000000000000007F
:10018000000000000000000000000000000000006F
:10019000000000000000000000000000000000005F
:1001A000000000000000000000000000000000004F
:1001B000000000000000000000000000000000003F
:1001C000000000000000000000000000000000002F
:1001D000000000000000000000000000000000001F
:1001E000000000000000000000000000000000000F
:1001F00000000000000000000000000000000000FF
:100200000000030030F70D0000004E040C00030056
:080210000000000000000000E6
:100220000C490D4A0D4B9B1A03DD043BC858D050B6
:10023000FBDC0A490A4A0020521A02DD043A8850BF
:10024000FCDC6DF0B7FB03F00DFF11F0ADFB04F02B
:100250004DF80000A4EE0D000042002048490020A7
:10026000DC720120FEE7FEE7FEE7FEE7FEE7FEE7C1
:10027000FEE7FEE7FEE7FEE7D0400B1CD1409C46C0
:10028000203AD34018435242634693401843704784
:100290009140031C90409C46203A9340194352429F
:1002A0006346D3401943704781F0004102E000BF2C
:1002B00083F0004330B54FEA41044FEA430594EA26
:1002C000050F08BF90EA020F1FBF54EA000C55EA61
:1002D000020C7FEA645C7FEA655C00F0E2804FEA32
:1002E0005454D4EB5555B8BF6D420CDD2C4480EA14
:1002F000020281EA030382EA000083EA010180EA44
:10030000020281EA0303362D88BF30BD11F0004F91
:100310004FEA01314FF4801C4CEA113102D04042C7
:1003200061EB410113F0004F4FEA03334CEA133302
:1003300002D0524263EB430394EA050F00F0A7801A
:10034000A4F10104D5F1200E0DDB02FA0EFC22FA15
:1003500005F2801841F1000103FA0EF2801843FA09
:1003600005F359410EE0A5F120050EF1200E012AFA
:1003700003FA0EFC28BF4CF0020C43FA05F3C01838
:1003800051EBE37101F0004507D54FF0000EDCF1B1
:10039000000C7EEB00006EEB0101B1F5801F1BD35A
:1003A000B1F5001F0CD349085FEA30004FEA3C0C5E
:1003B00004F101044FEA445212F5800F80F09A8054
:1003C000BCF1004F08BF5FEA500C50F1000041EB58
:1003D000045141EA050130BD5FEA4C0C404141EB5C
:1003E000010111F4801FA4F10104E9D191F0000F83
:1003F00004BF01460020B1FA81F308BF2033A3F106
:100400000B03B3F120020CDA0C3208DD02F1140CFC
:10041000C2F10C0201FA0CF021FA02F10CE002F137
:100420001402D8BFC2F1200C01FA02F120FA0CFC30
:10043000DCBF41EA0C019040E41AA2BF01EB045179
:10044000294330BD6FEA04041F3C1CDA0C340EDC77
:1004500004F11404C4F1200220FA04F001FA02F3BA
:1004600040EA030021FA04F345EA030130BDC4F178
:100470000C04C4F1200220FA02F001FA04F340EA6D
:100480000300294630BD21FA04F0294630BD94F01E
:10049000000F83F4801306BF81F480110134013D05
:1004A0004EE77FEA645C18BF7FEA655C29D094EA76
:1004B000050F08BF90EA020F05D054EA000C04BFF4
:1004C0001946104630BD91EA030F1EBF00210020DF
:1004D00030BD5FEA545C05D14000494128BF41F07E
:1004E000004130BD14F580043CBF01F5801130BDE2
:1004F00001F0004545F0FE4141F470014FF000006D
:1005000030BD7FEA645C1ABF194610467FEA655C1D
:100510001CBF0B46024650EA013406BF52EA0335BF
:1005200091EA030F41F4002130BD00BF90F0000FAD
:1005300004BF0021704730B54FF4806404F13204E9
:100540004FF000054FF0000150E700BF90F0000FA2
:1005500004BF0021704730B54FF4806404F13204C9
:1005600010F0004548BF40424FF000013EE700BF99
:1005700042004FEAE2014FEA31014FEA02701FBF29
:1005800012F07F4393F07F4F81F06051704792F0FB
:10059000000F14BF93F07F4F704730B54FF4607475
:1005A00001F0004521F0004120E700BF50EA0102C0
:1005B00008BF704730B54FF000050AE050EA01026D
:1005C00008BF704730B511F0004502D5404261EBDD
:1005D00041014FF4806404F132045FEA915C3FF41E
:1005E000DCAE4FF003025FEADC0C18BF03325FEAB7
:1005F000DC0C18BF033202EBDC02C2F1200300FA6C
:1006000003FC20FA02F001FA03FE40EA0E0021FA90
:1006100002F11444C1E600BF70B54FF0FF0C4CF47A
:10062000E06C1CEA11541DBF1CEA135594EA0C0F30
:1006300095EA0C0F00F0DEF82C4481EA030621EA6B
:100640004C5123EA4C5350EA013518BF52EA0335A6
:1006500041F4801143F4801338D0A0FB02CE4FF058
:100660000005E1FB02E506F00042E0FB03E54FF088
:100670000006E1FB03569CF0000F18BF4EF0010E80
:10068000A4F1FF04B6F5007F64F5407404D25FEA7C
:100690004E0E6D4146EB060642EAC62141EA55512F
:1006A0004FEAC52040EA5E504FEACE2EB4F1FD0C71
:1006B00088BFBCF5E06F1ED8BEF1004F08BF5FEAEF
:1006C000500E50F1000041EB045170BD06F00046A1
:1006D00046EA010140EA020081EA0301B4EB5C044E
:1006E000C2BFD4EB0C0541EA045170BD41F4801146
:1006F0004FF0000E013C00F3AB8014F1360FDEBF6B
:10070000002001F0004170BDC4F10004203C35DA46
:100710000C341BDC04F11404C4F1200500FA05F3C9
:1007200020FA04F001FA05F240EA020001F000426A
:1007300021F0004110EBD37021FA04F642EB0601E0
:100740005EEA430E08BF20EAD37070BDC4F10C040A
:10075000C4F1200500FA04F320FA05F001FA04F2CE
:1007600040EA020001F0004110EBD37041F10001BA
:100770005EEA430E08BF20EAD37070BDC4F12005C5
:1007800000FA05F24EEA020E20FA04F301FA05F22D
:1007900043EA020321FA04F001F0004121FA04F2D5
:1007A00020EA020000EBD3705EEA430E08BF20EAA5
:1007B000D37070BD94F0000F0FD101F000464000DF
:1007C00041EB010111F4801F08BF013CF7D041EA61
:1007D000060195F0000F18BF704703F00046520065
:1007E00043EB030313F4801F08BF013DF7D043EA36
:1007F0000603704794EA0C0F0CEA135518BF95EAEC
:100800000C0F0CD050EA410618BF52EA4306D1D172
:1008100081EA030101F000414FF0000070BD50EA91
:10082000410606BF1046194652EA430619D094EA1B
:100830000C0F02D150EA013613D195EA0C0F05D105
:1008400052EA03361CBF104619460AD181EA030159
:1008500001F0004141F0FE4141F470014FF0000011
:1008600070BD41F0FE4141F4780170BD70B54FF0AC
:10087000FF0C4CF4E06C1CEA11541DBF1CEA13552C
:1008800094EA0C0F95EA0C0F00F0A7F8A4EB05040E
:1008900081EA030E52EA03354FEA013100F0888005
:1008A0004FEA03334FF0805545EA131343EA1263CE
:1008B0004FEA022245EA111545EA10654FEA002683
:1008C0000EF000419D4208BF964244F1FD0404F53C
:1008D000407402D25B084FEA3202B61A65EB030598
:1008E0005B084FEA32024FF480104FF4002CB6EB55
:1008F000020E75EB030E22BFB61A754640EA0C00D5
:100900005B084FEA3202B6EB020E75EB030E22BF14
:10091000B61A754640EA5C005B084FEA3202B6EB55
:10092000020E75EB030E22BFB61A754640EA9C0014
:100930005B084FEA3202B6EB020E75EB030E22BFE4
:10094000B61A754640EADC0055EA060E18D04FEAA2
:10095000051545EA16754FEA06164FEAC30343EA42
:1009600052734FEAC2025FEA1C1CC0D111F4801F0F
:100970000BD141EA00014FF000004FF0004CB6E708
:1009800011F4801F04BF01430020B4F1FD0C88BFA7
:10099000BCF5E06F3FF6AFAEB5EB030C04BFB6EBB2
:1009A000020C5FEA500C50F1000041EB045170BDA5
:1009B0000EF0004E4EEA113114EB5C04C2BFD4EBD2
:1009C0000C0541EA045170BD41F480114FF0000E56
:1009D000013C90E645EA060E8DE60CEA135594EAD2
:1009E0000C0F08BF95EA0C0F3FF43BAF94EA0C0FD5
:1009F0000AD150EA01347FF434AF95EA0C0F7FF44A
:100A000025AF104619462CE795EA0C0F06D152EA9D
:100A100003353FF4FDAE1046194622E750EA410681
:100A200018BF52EA43067FF4C5AE50EA41047FF492
:100A30000DAF52EA43057FF4EBAE12E74FF0FF3CF7
:100A400006E000BF4FF0010C02E000BF4FF0010CC8
:100A50004DF804CD4FEA410C7FEA6C5C4FEA430C41
:100A600018BF7FEA6C5C1BD001B050EA410C0CBF90
:100A700052EA430C91EA030F02BF90EA020F0020F2
:100A8000704710F1000F91EA030F58BF994208BF59
:100A900090422CBFD8176FEAE37040F00100704716
:100AA0004FEA410C7FEA6C5C02D150EA013C07D16D
:100AB0004FEA430C7FEA6C5CD6D152EA033CD3D0B8
:100AC0005DF8040B704700BF8446104662468C46B2
:100AD0001946634600E000BF01B5FFF7B7FF0028E5
:100AE00048BF10F1000F01BD4DF808EDFFF7F4FF0E
:100AF0000CBF012000205DF808FB00BF4DF808ED99
:100B0000FFF7EAFF34BF012000205DF808FB00BFBB
:100B10004DF808EDFFF7E0FF94BF012000205DF8DD
:100B200008FB00BF4DF808EDFFF7CEFF94BF012092
:100B300000205DF808FB00BF4DF808EDFFF7C4FF8B
:100B400034BF012000205DF808FB00BF4FEA410CD4
:100B50007FEA6C5C02D150EA013C0AD14FEA430CB7
:100B60007FEA6C5C02D152EA033C02D14FF00000F4
:100B700070474FF0010070474FEA410212F5001232
:100B800015D211D56FF47873B3EB625212D94FEAD4
:100B9000C12343F0004343EA505311F0004F23FABE
:100BA00002F018BF404270474FF00000704750EA13
:100BB000013005D111F0004008BF6FF000407047D0
:100BC0004FF00000704700BF4A0011D212F500122A
:100BD00011D20DD56FF47873B3EB62520ED44FEA95
:100BE000C12343F0004343EA505323FA02F0704715
:100BF0004FF00000704750EA013002D14FF0FF3053
:100C000070474FF0000070474FEA4102B2F1E043F5
:100C100024BFB3F5001CDCF1FE5C0DD901F0004CE3
:100C20004FEAC0024CEA5070B2F1004F40EB830033
:100C300008BF20F00100704711F0804F21D113F15F
:100C40003872BCBF01F00040704741F480114FEA98
:100C50005252C2F11802C2F1200C10FA0CF320FA21
:100C600002F018BF40F001004FEAC1234FEAD3233E
:100C700003FA0CFC40EA0C0023FA02F34FEA4303A8
:100C8000CCE77FEA625307D150EA01331EBF4FF031
:100C9000FE4040F44000704701F0004040F0FE404C
:100CA00040F40000704700BF7BB972B90029BEBF95
:100CB00000204FF0004106E008BF00281CBF6FF085
:100CC00000414FF0FF3000F0DDB9ADF1080C6DE9E7
:100CD00004CE002909DB002B1ADB00F061F8DDF8F7
:100CE00004E0DDE9022304B07047404261EB4101BA
:100CF000002B1BDB00F054F8DDF804E0DDE90223F3
:100D000004B0404261EB4101524263EB4303704740
:100D1000524263EB430300F043F8DDF804E0DDE901
:100D2000022304B0404261EB41017047524263EB41
:100D3000430300F035F8DDF804E0DDE9022304B0F8
:100D4000524263EB4303704753B94AB9002908BFC5
:100D500000281CBF4FF0FF314FF0FF3000F092B978
:100D6000ADF1080C6DE904CE00F01AF8DDF804E0EE
:100D7000DDE9022304B07047430803F05533C01A7D
:100D8000830803F0333300F03330184400EB1010C5
:100D900000F00F3000EB002000EB0040000E704729
:100DA0002DE9F0478C460E460446089D002B50D195
:100DB0008A4217466CD9B2FA82FEBEF1000F0BD000
:100DC000CEF1200420FA04F401FA0EF644EA060CEF
:100DD00002FA0EF700FA0EF44FEA1749220CBCFB98
:100DE000F9F01FFA87F809FB10C642EA064600FB35
:100DF00008F3B34209D9F61900F1FF3280F02281DD
:100E0000B34240F21F8102383E44F61AA2B2B6FB4A
:100E1000F9F309FB136642EA064403FB08F8A04510
:100E200009D9E41903F1FF3280F00A81A04540F2AC
:100E30000781023B3C44C8EB040443EA0040002124
:100E4000002D62D024FA0EF400232C606B60BDE804
:100E5000F0878B4207D9002D55D0002185E841004D
:100E60000846BDE8F087B3FA83F1002940F090808E
:100E7000B34202D3824200F2F880841A66EB030682
:100E80000120B446002D40D085E81010BDE8F08761
:100E900012B90127B7FBF2F7B7FA87FEBEF1000FD0
:100EA00035D1F31B4FEA17481FFA87FC0121B3FB2A
:100EB000F8F0220C08FB103642EA06460CFB00F361
:100EC000B34207D9F61900F1FF3202D2B34200F261
:100ED000CE801046F61AA2B2B6FBF8F308FB1366F2
:100EE00042EA06440CFB03FCA44507D9E41903F1CC
:100EF000FF3202D2A44500F2B5801346CCEB0404C5
:100F000043EA00409CE729462846BDE8F087CEF139
:100F1000200106FA0EF307FA0EF720FA01F94FEA5C
:100F20001748CE4049EA0309B6FBF8FA4FEA1944DC
:100F300008FB1A661FFA87FC44EA06430AFB0CF218
:100F40009A4200FA0EF40AD9DB190AF1FF3180F057
:100F500087809A4240F28480AAF1020A3B449B1A9D
:100F60001FFA89F9B3FBF8F108FB113349EA03438F
:100F700001FB0CF69E4207D9DB1901F1FF326BD25F
:100F80009E4269D902393B449B1B41EA0A418EE7E4
:100F9000C1F1200E22FA0EF48B40234320FA0EF703
:100FA00006FA01F44FEA134C26FA0EF63C43B6FB60
:100FB000FCF9270C0CFB19661FFA83F847EA064672
:100FC00009FB08F7B74202FA01F200FA01FA08D960
:100FD000F61809F1FF3041D2B7423FD9A9F1020911
:100FE0001E44F61BA0B2B6FBFCF40CFB146640EAF0
:100FF000064704FB08F8B84507D9FF1804F1FF308D
:1010000028D2B84526D9023C1F4444EA0940C8EB1F
:101010000707A0FB02894F4544464E4614D329D00A
:1010200065B3BAEB040367EB060707FA0EFECB4085
:10103000CF404EEA030385E888000021BDE8F08731
:101040001346F8E61046E0E6B8EB020469EB030647
:101050000138E5E70446D8E7114695E78146C0E741
:101060008A467CE7023B3C4448E708460AE70238E8
:101070003E442FE7C245E7D33E46D1E72946BDE8C7
:10108000F08700BF704700BF0000000000000000B4
:1010900001F0FF01102A2BDB10F0070F08D010F829
:1010A000013B013A8B422DD010F0070F42B3F6D12D
:1010B000F0B441EA012141EA014122F007047FF046
:1010C00000070023F0E80256083C85EA010586EA9D
:1010D000010685FA47F5A3FA87F586FA47F6A5FAD9
:1010E00087F68EB9EED1F0BC01F0FF0102F00702E5
:1010F00032B110F8013B013A83EA010313B1F8D190
:101100000020704701387047002D06BF3546033870
:10111000073815F0010F07D1013015F4807F02BFA9
:10112000013015F4C03F0130F0BC0138704700BFFA
:1011300010F8012B11F8013B012A28BF9A42F7D081
:10114000D01A7047034613F8012B002AFBD1181A56
:101150000138704700B1807B704708B1C07B704791
:10116000FF20704708B1808970474FF6FF707047C5
:1011700005C8101A7047084607F0D2BD18B1436B76
:10118000994208BF0021084607F0AABC38B502FB07
:1011900001F4204607F0C4FD054618B1224600219F
:1011A00089F0A9F8284638BD70B50D46164622B913
:1011B000084607F095FC304670BD104607F0B0FDBC
:1011C000044638B135B13246294689F06EF82846D2
:1011D00007F086FC204670BDF8B5064608460F4667
:1011E00003F026F807F016FD0C4C206007F006FD12
:1011F00025682062281AE06107F006FD281A606160
:10120000384603F025F80FCC35460FC50FCC0FC577
:1012100094E8030085E803003046F8BD4849002003
:101220007047000070B500F043FE314C3149324D3B
:10123000324E01F066FA00F03BFE314901F074FADB
:10124000204600F039FA10EE100AFFF791F9C5E9CF
:101250000001204600F0EAF910EE100AFFF788F9C5
:10126000284CC4E9000100F023FE274901F049FAA7
:1012700000F01EFE95ED000B022101F063FB00F073
:1012800017FE2249224D01F03CFA00F011FE94EDC8
:10129000000B204C022101F055FB204600F014F910
:1012A0002089FFF743F9C6E900016089FFF73EF99D
:1012B000C5E9000100F0FCFD174901F022FA00F039
:1012C000F7FD96ED000B022101F03CFB00F0F0FD74
:1012D000124901F016FA00F0EBFD95ED000B02212A
:1012E00001F030FB41F28830BDE8704001F01AB9DE
:1012F0007049002083A20D00804900208849002009
:10130000DCD60B009049002000D70B0010D70B0053
:10131000A8490020984900201DD70B0026D70B00B4
:10132000002309221CF014BE08B500F0C1FD4FF4E3
:10133000165100F093FD0F490F48FFF7F1FF0F49D9
:101340000F48FFF7EDFF0F490F48FFF7E9FF0F497F
:101350000F48FFF7E5FF0F4800F0F5FA5A210E4855
:1013600000F02AF928B900F0A3FD0C4901F0DCF9DE
:10137000FEE708BD804900202FD70B0090490020D0
:101380003BD70B008849002044D70B00A849002018
:1013900049D70B0070490020984900204ED70B0018
:1013A00008B503F083F8054800F039F9044A054907
:1013B0000548BDE8084088F08BBB00BF704900209D
:1013C0008C630020211203009849002000788000DF
:1013D00000F07C00704708B52FF03AFDBDE80840EA
:1013E00000F0C4BC2DE9F84F07468A46914698465E
:1013F000002444452FD2C4EB0805EDB2202D28BFB0
:1014000020252FF025FD397800F0C7FC2FF020FDB6
:10141000036804EB0A019B68C9B298472FF018FDD6
:1014200000F0C6FC2FF014FD2A46397800F0ADFC20
:10143000002604EB060BAE425FFA8BFB02DB2C446A
:10144000E4B2D6E72FF004FD03685B6998470136E4
:1014500009F80B00EDE7BDE8F88F07B501230DF1A2
:101460000702FFF7BFFF9DF8070003B05DF804FB1C
:1014700010B500210446FFF7F0FF237BC21060F394
:10148000000362F34103021162F38203C2091846AA
:1014900062F3C3002073C0F3400010BD10B50021FB
:1014A0000446FFF7DAFF237BC21060F3000362F308
:1014B0004103021162F38203C209184662F3C300BA
:1014C000207300F0010010BD13B50446FFF7D0FFF4
:1014D000C8B108236A4620460221FFF783FF9DF822
:1014E00000209DF80130207B43EA022363819DF8B0
:1014F00002209DF8033010F0010043EA022318BFD8
:101500009DF80500238102B010BDF8B507461546C9
:101510001E460C462FF09CFC397800F03EFC2FF064
:1015200097FC036821469B6898472FF091FC03685D
:101530003246DC682946A0472FF08AFCBDE8F84017
:1015400000F036BC13B5064B04461868019004231E
:101550000DEB0302FF212046FFF7D7FF02B010BDBD
:10156000FCD40B0013B502AC012304F8012D224674
:10157000FFF7CBFF02B010BD10B5437B61F38403CE
:10158000044600F80D3FFFF721FF012102462046E7
:10159000BDE81040FFF7E6BF10B5437B6FF3410392
:1015A000044600F80D3FFFF711FF012102462046D7
:1015B000BDE81040FFF7D6BF10B501700446FFF735
:1015C0000AFF2046FFF7BEFF642000F0ABFF20219A
:1015D0002046FFF742FF812801D0002010BD0023E4
:1015E0001A46F4212046FFF790FF642000F09AFF8E
:1015F0002046FFF753FF0028EFD1237B1B07ECD5D4
:101600002046FFF7C9FF20460121FFF7B5FF012063
:1016100010BD02F04BBF0368C9B29B681847402257
:1016200002720022426002607047000010B504465A
:101630002FF00EFC94F9081000F0B3FB2FF008FC1B
:101640000368F5219B6898472FF002FC002100F009
:10165000ABFB192000F066FF2FF0FAFB94F908109D
:10166000032200F095FB2FF0F3FB03685B699847BA
:1016700084B22FF0EDFB03685B69984740EA0420D1
:1016800004B22FF0E5FB03685B699847A3B207EE4D
:10169000903A9FED067AF8EE677AB9EE080A67EE9F
:1016A000877A9FED037AA7EE870A10BD0000FA4201
:1016B000000080370000000010B504462FF0C8FB82
:1016C00094F9081000F06DFB2FF0C2FB0368F321C2
:1016D0009B6898472FF0BCFB002100F065FB1920A8
:1016E00000F020FF2FF0B4FB032294F9081000F063
:1016F0004FFB2FF0ADFB03685B69984784B22FF076
:10170000A7FB03685B69984740EA042004B22FF006
:101710009FFB03685B699847A0B207EE900AF8EE5A
:10172000677A17EE900AFEF723FF10A3D3E9002390
:10173000FEF772FFFFF768FADFED0B7A07EE100A8B
:1017400067EE277A17EE900AFEF712FF04A3D3E99B
:101750000023FEF7ADFDFFF757FA00EE100A10BDAB
:10176000CDCCCCCCCC6C474000008037D7A3703DAB
:101770000AF7654010B504462FF06AFB94F908108B
:1017800000F00FFB2FF064FB0368FE219B68984775
:101790002FF05EFB00F00CFB3220BDE8104000F0A3
:1017A000C1BE10B504462FF053FB94F9081000F0A9
:1017B000F8FA2FF04DFB0021FFF72DFF2FF048FB2B
:1017C0000F21FFF728FF2FF043FB00F0F1FA2FF075
:1017D0003FFB082294F9081000F0DAFA2FF038FBEA
:1017E00003685B69984720602FF032FB03685B69F0
:1017F000984723681B0223602FF02AFB03685B696C
:1018000098472368184320602FF022FB03685B6928
:10181000984723681B0223602FF01AFB03685B695B
:1018200098472368184320602FF012FB03685B6918
:10183000984723681B0223602FF00AFB03685B694B
:1018400098472368184320602FF002FB03685B6908
:1018500098472FF0FDFA94F9081000F0A2FA2FF043
:10186000F7FA0021FFF7D7FE2FF0F2FAC921FFF7B0
:10187000D2FE2FF0EDFA00F09BFA2FF0E9FA94F97E
:101880000810082200F084FA2FF0E2FA03685B697E
:10189000984760602FF0DCFA03685B6998476368DB
:1018A0001B0263602FF0D4FA03685B699847636892
:1018B000184360602FF0CCFA03685B69984763684F
:1018C0001B0263602FF0C4FA03685B699847636882
:1018D000184360602FF0BCFA03685B69984763683F
:1018E0001B0263602FF0B4FA03685B699847636872
:1018F000184360602FF0ACFA0368BDE810405B69E4
:10190000184738B504460D462FF0A2FA94F908108E
:1019100000F047FA2FF09CFA036829469B68984725
:101920002FF096FA002100F03FFA2FF091FA0122F1
:1019300094F9081000F02CFA2FF08AFA03685B691A
:101940009847C0B238BD10B504462FF081FA00F0B8
:101950000DFA2046FFF70EFFE7212046FFF7D1FFE3
:101960003A2804D12046FFF71CFF012010BD0020BB
:1019700010BD02F09BBD10B5036804469B689847F4
:10198000A368013BA3602BB923682046DB68BDE850
:101990001040184710BD10B50446006828B14368D0
:1019A000013B43600BB9FFF7E6FF204610BD002363
:1019B0001A4640681CF0E4BF0022022140681CF077
:1019C00027BE0022114640681CF094BD002211463B
:1019D00040681CF03FBD00231A46194640681CF0C1
:1019E000A7BE00231A46194640681CF0DFBE00223D
:1019F00081F0010140681CF02BBF002240681CF000
:101A0000A1BD0022114640681CF09DBD0022114678
:101A100040681CF09ABD2DE9F043002495B01646AD
:101A20000D46074600F0A4FA214620220CA8009497
:101A300088F061FC40230C9321466B460CAA30468B
:101A400012F01CFF0446002844D1024601216868B8
:101A50001CF000FD02218046224668681CF0FAFC5A
:101A6000009E81462146002E34D0002932D1736871
:101A7000022B02D00A2B09D02AE0B8F1000F27D0A0
:101A800071693846043100F0A0FA20E0B9F1000F86
:101A90001ED07469112201A888F02DFC06238DF850
:101AA000143001AD04F108031834186859682A4647
:101AB00003C20833A3421546F7D101A906A807AD12
:101AC00000F064FA0FCD3C1D0FC42B682370012178
:101AD000F669C8E7009812F0CFFE384615B0BDE8A9
:101AE000F0830000024B034A1A6000225A607047DC
:101AF000B049002088D70B000022114640681CF036
:101B000024BD0022114640681CF01DBD0022406823
:101B10001CF018BD002281F0010140681CF098BE45
:101B200000231A46194640681CF040BE00231A469E
:101B3000194640681CF0FCBD0022114640681CF0AC
:101B400089BC0022114640681CF0D4BC002202214E
:101B500040681CF05DBD00231A4640681CF010BFB1
:101B600038B5054678B1046844B1A3681BB10322B7
:101B700021462046984720460FF07DF82846BDE8CC
:101B800038400FF078B838BD10B103685B6818476B
:101B9000704710B503680446BBB1586810F072FB7B
:101BA00078B923685A7C12B9586810F081FB236811
:101BB000586810F08FFB20680023236028B1FFF7DE
:101BC000CFFF206808B1FFF7CBFF204610BD000013
:101BD00038B50B4B03600446D0F8CC0108B10FF0C8
:101BE0004CF8D4F8C4512DB12846FFF7D2FF28464F
:101BF0000FF041F8A06808B1FFF7C6FF204638BDD6
:101C0000BCD70B0038B50D4C0D4B236000250223CB
:101C100004F5E4706360A560C4F8C451C4F8C85109
:101C200010F0BDFB074BC4F8CC5123602046064A98
:101C30000649BDE8384087F04BBF00BFB8490020D7
:101C400088D70B00BCD70B008C630020D11B03008E
:101C50000022114640681CF0FDBB0022114640687E
:101C60001CF073BC0022114640681CF06CBC0022C2
:101C700040681CF067BC002281F0010140681CF044
:101C8000E7BD00231A46194640681CF08FBD0023AB
:101C90001A46194640681CF04BBD002211464068A8
:101CA0001CF028BC0022022140681CF0B1BC0023BB
:101CB0001A4640681CF064BE024B04225A60024A75
:101CC0001A607047884B0020F0D70B0010B583686E
:101CD00004460BB987F046FFC3689847A3681BB159
:101CE00003222146204698472046BDE810400EF0CA
:101CF000C2BF7047F8B5064615460C468F18BC4261
:101D000006D0336814F8011B9B6830469847F6E705
:101D10002846F8BD0022007C10F024BE0021007C83
:101D200010F048BE0021007C10F05ABE0021007C5B
:101D300010F076BE0021007C10F006BD10B5044600
:101D40000EF099FF204610BD10B504464FF47A738B
:101D50000846A3600021044B20746160236010F0EA
:101D60002BFD204610BD00BF24D80B0000231A46CF
:101D70001946007C10F070BE13B50024007C00945E
:101D800010F062FDC0B202B010BD0123FFF7F4BF36
:101D90000123D2B2C9B2FFF7EFBF0022007C10F0DE
:101DA0008BBDC9B2FFF7F9BF0022007C10F09CBDCB
:101DB0000121FFF7F9BF10B5044630B188F05CFF90
:101DC00090FBF4F303FB140010BD10BD884210B566
:101DD000044604DA081AFFF7EEFF204410BD10BDD8
:101DE0004174704770470021007C0CF07ABC0121DF
:101DF000007C0CF076BC007C0CF071BC007C0CF01C
:101E00006CBC38B50446007C0D460CF068FC00281C
:101E100001DC607C20B12946207C0CF06BFC0120A9
:101E200038BD007C0CF070BC10B504460EF023FFEA
:101E3000204610BD10B50446002363604FF47A734A
:101E4000A360054B23600123084621746374114687
:101E50000CF016FC204610BD4CD80B000022007C74
:101E60000CF036BC007C0CF036BC10B514220446D5
:101E7000002188F040FA204610BD000010B5002374
:101E80004FF47A7286B00446436082600374074A56
:101E900002600123437401A8FFF7E7FF207C01A93A
:101EA0000CF0EEFB204606B010BD00BF4CD80B0076
:101EB00030B50E4D87B001A8FFF7D7FF296811F0A4
:101EC000010410D128460DF0D1FA60B101AA2146D3
:101ED0000748FFF7AFFF28460DF02AFB054A0649E1
:101EE000034887F0F5FD024807B030BD904B002055
:101EF000944B00208C630020E51D0300704710B553
:101F000004460EF0B8FE204610BDF0B5037D062B4A
:101F10008DB00E4600F104074FF0000402D000F12E
:101F2000080518E00CAD394605F8304D2F232A4638
:101F30000A2014F0B8FA2846FFF704F9336802467D
:101F4000DB682946304698470FE024B12E21304601
:101F500000F0DBFB044415F8011D0A22304600F0B6
:101F60001AFCBD420444F0D120460DB0F0BD000083
:101F700010B5054B0446112240F8043B002188F0BF
:101F8000BAF9204610BD00BF7CD80B000346074AB3
:101F900010B543F8042B01F1100251F8044B43F83B
:101FA000044B9142F9D10A781A7010BD7CD80B000D
:101FB00010B59DF8084044EA032343EA024242EA8E
:101FC000016104234160037510BD37B50D788B782E
:101FD0004A78C97800912946FFF7EAFF03B030BD7F
:101FE00070470020704710B504460EF044FE2046AE
:101FF00010BD08B508B1FFF7F6FF08BD10B583683E
:10200000044613B1032201469847204610BD38B557
:10201000C468D4B12378022B02D1E06888F02EF98D
:1020200065682DB12846FFF7E9FF28460EF023FE2C
:10203000A5682DB12846FFF7E1FF28460EF01BFEEC
:102040002046BDE838400EF016BE38BD13B5044634
:1020500091E8050000234B600B602060626001A8DE
:1020600001930093FFF797FC204602B010BD0B6868
:10207000036013B15A6801325A607047F7B50C46D5
:1020800002AD54F8043B45F8083D06460F4601A84A
:102090002146FFF7ECFF29463046FFF7D7FF01A89E
:1020A000FFF779FC2046FFF776FC38460EF0E3FD9B
:1020B000304603B0F0BD13B50B46044603C88DE8A7
:1020C000030093E8030084E803009DE8030083E82D
:1020D000030002B010BD826810B50AB987F042FD56
:1020E000C368BDE81040184708B5006800F110014A
:1020F000FFF7F1FF08BD826810B50AB987F032FD1D
:10210000C368BDE81040184708B5006800F1100129
:10211000FFF7F1FF08BD38B5002383608B680446E4
:102120000D462BB102229847EB68E360AB68A360D1
:10213000204638BD2DE9F0414FF69C7386B0046807
:10214000B1F904208B8000230F688DF800300B60FC
:102150004FF00200D4E84F1F994203D1C4E8450F65
:10216000002DF7D102D08DF800106AE014F10C05B3
:102170001EBFE76022821F460123BFF35F8F00204E
:10218000637004F10803BFF35F8F53E8006F43E807
:102190000002002AF9D1BFF35F8F002E51D020F04A
:1021A0001FFA20B129463046FFF795FF43E031463C
:1021B0006846FFF7B0FFE068B4F9105008B188F046
:1021C00017FF04901020ADF814500EF050FD054696
:1021D00030B34FF00008C0F8088018200EF047FD1B
:1021E0000446C0B1C0F8088001466846FFF763FFA7
:1021F000029BA268A360039B0292E268E360BDF8C1
:102200001430A3824FF69C73ADF81430049B0392F4
:102210002361CDF810800E4BEB600E4B2C60AB6051
:10222000049888F02BF86846FFF7E8FE002229465C
:10223000094820F095FD3046FFF7E0FE30460EF0ED
:102240001AFD384688F01AF806B0BDE8F08100BFE4
:10225000E920030045230300CD1C03002DE9F04FC6
:102260008BB007AD4FF0000B0646994614200C23A7
:102270000F4690469DF850A0C5F804B0C5F808B0C8
:1022800007930EF0F4FC044638B180F800B080F8F3
:1022900001B0C0F804B0C0F808B0002310200394C7
:1022A00004930EF0E4FC28B1012343608360234BC8
:1022B0000360C4600490224B089308200EF0D7FC02
:1022C000044628B1039B40F8043B04A9FFF7CFFE66
:1022D00000955FFA8AF34A464146384609941BF056
:1022E000D1FDB8B9039B5B7803F0FF0293B94FF6B9
:1022F0009C7305A903A80592ADF81830FFF71AFFE3
:10230000059887F0BBFF05A80999FFF7B7FE06A857
:10231000FFF741FB039B059304A906A8FFF7A7FE5F
:1023200005A93046FFF792FE06A8FFF734FB04A884
:10233000FFF731FB30460BB0BDE8F08F90D80B00B3
:10234000AD240300022AF8B5044606D0032A17D0AC
:10235000012A20D10B6803601DE018200E680EF0E2
:1023600086FC054650B13146FFF7D5FE3069B6F917
:10237000147008B188F03CFE2861AF8225600AE045
:10238000046844B1206987F079FF2046FFF736FEE4
:1023900020460EF070FC0020F8BD38B500238360A5
:1023A0008B6804460D462BB102229847EB68E36028
:1023B000AB68A360204638BD022A70B5044606D03B
:1023C000032A11D0012A17D10B68036014E01420EE
:1023D0000E680EF04CFC054620B13146FFF7DDFFDC
:1023E000337C2B74256007E004682CB12046FFF78E
:1023F00005FE20460EF03FFC002070BDF0B5002326
:1024000087B00C46BFF35F8F50E8006F40E80032A2
:10241000002AF9D1BFF35F8F002E3ED0184620F07E
:10242000DFF8074620B121463046FFF764FE2EE074
:10243000314601A8FFF7B1FF23788DF81430102042
:102440000EF015FC0546D0B1876014200EF00FFC8D
:10245000044678B18760014601A8FFF72CFE039B74
:10246000A268A360049B0392E268E3609DF81430C5
:10247000049223740A4BEB600A4B2C60AB6001A8FA
:10248000FFF7BCFD00222946074820F069FC3046D2
:10249000FFF7B4FD30460EF0EEFB07B0F0BD00BF15
:1024A00009210300B9230300CD1C030030B585B01A
:1024B00004460D4668461146FFF7E0FD7CB124B2A4
:1024C00028460DB188F094FD029002A96846ADF847
:1024D0000C40FFF72FFE029887F0D0FE1DE0009819
:1024E0008DF808404FF00102D0E84F3FA34203D1DE
:1024F000C0E8412F0029F7D102D08DF808300CE058
:1025000010F10C014FF0010318BF0373BFF35F8F8D
:10251000043000F8033CFFF771FF01A8FFF73BFA16
:1025200005B030BD002120F085BA000008B50C4B85
:1025300033B1FFF7BDFC03681B699847002809DC2D
:10254000084B63B100F08CFA03681B6998470028B8
:1025500003DC08BDAFF30080F2E7AFF3008008BDF5
:10256000000000000000000008B5FFF7DFFF0BF0DF
:10257000B6F8014B186008BD5489002010B5044618
:10258000FFF73CFD204610BD10B5044628F0A8F921
:10259000844208D01CB1BDE8104028F087B9BDE8DE
:1025A000104028F0BFB810BD70B505460E46144661
:1025B00028F096F950B144EA062040EA054028F098
:1025C000ABF8E720BDE8704028F006B970BDC2B294
:1025D000C0F30721C0F30740FFF7E6BF0348044AF2
:1025E00004490023836087F073BA00BFA84B002022
:1025F0008C6300207D25030038B5002383608B6841
:1026000004460D462BB102229847EB68E360AB68A5
:10261000A360204638BD0000024B1A68024B1A60C6
:10262000704700BF00420020B84B0020014B024A17
:102630001A607047BC4B002070D90B002DE9F047A1
:1026400005460E4692461F460BF049F80024814687
:102650003FB10BF044F8C9EB0000874201D2BDE85E
:10266000F0872B6828461B6998470028F0DD2B6807
:1026700028465B6998475445C1B203D100233370A3
:10268000BDE8F0870D29F9D00A29F7D0082901D033
:102690007F2905D1002CDBD006F1FF38013C03E097
:1026A00006F10108317001342B6828469B68E4B2BA
:1026B00098474646CCE7F8B506460D468F180024E5
:1026C000BD420CD0336815F8011B9B683046984713
:1026D000002801DB0444F3E7002C08BF0446204631
:1026E000F8BD70B505460C46084649B1FEF72AFD0F
:1026F0002B68024621462846DB68BDE87040184733
:1027000070BD08B5FFF7EDFF08BD03689B6818476B
:1027100038B50D210546FFF7F8FF0A210446284683
:10272000FFF7F3FF204438BD38B50546FFF7D9FF62
:1027300004462846FFF7ECFF204438BD30B58BB087
:102740000B4600218DF82410012A98BF0A220DF1B2
:102750002304B3FBF2F505FB123303F0FF03092B4F
:1027600094BF30333733DBB2214604F801392B46AE
:10277000002DEED1FFF7B5FF0BB030BD10B42AB974
:1027800003685DF8044B9B68C9B21847D2B25DF884
:10279000044BFFF7D3BFFFF7F1BF2DE9F041074628
:1027A0000E4615462AB90368C9B29B68BDE8F041D8
:1027B00018470A2A02D1002901DA04E0D2B2BDE8A2
:1027C000F041FFF7BBBF2D21FFF79FFF2A460446CC
:1027D00071423846FFF7B2FF2044BDE8F0810000A7
:1027E0002DE9F04757EC106B82460D4610EE102A8B
:1027F0003B4610EE100A3946FEF7A8F908B14849E1
:1028000012E027F000494FF0FF32464B3046494670
:10281000FEF79CF968B94FF0FF32424B304649460B
:10282000FEF776F928B940495046FFF75AFFBDE850
:10283000F0874FF060423D4B30463946FEF77CF959
:1028400008B13B49F0E74FF060423A4B3046394619
:10285000FEF754F90028F4D100220023304639460F
:10286000FEF74CF940B12D215046FFF74EFF07F11E
:10287000004304461F4600E004462F494FF000087D
:1028800000205FFA88F39D4206D900222B4BFDF70A
:10289000EDFF08F10108F4E732463B46FDF70AFD7B
:1028A0000F460646FEF790F90A220146804650463A
:1028B000FFF744FF04447DB34046FDF737FE024670
:1028C0000B4630463946FDF7F3FC06460F465046A8
:1028D0001B49FFF706FF0444184B002230463946D7
:1028E000FDF79AFE0F460646FEF746F90A22014614
:1028F00080465046FFF751FF04444046FDF726FE50
:1029000002460B4630463946FDF7D2FC013D15F034
:10291000FF0506460F46DFD12046BDE8F08700BF21
:102920008AD90B00FFFFEF7F92D90B00FFFFEF4129
:102930008ED90B00FFFFEFC10000E03F00002440F4
:1029400074A60D0038B5C9B20546FFF749FF044625
:102950002846FFF7DDFE204438BD0CB42DE9F043D6
:1029600087B000AF07F13804054654F8049B3C607B
:102970000E4623464A461421381D88F03BFD132895
:1029800005D8391D2846FFF7ACFE044613E000F1D8
:10299000080323F00703E846ADEB030D411C234673
:1029A0004A4668463C6088F025FD69462846FFF7A0
:1029B00098FE0446C5461EB12846FFF7A9FE04440A
:1029C00020461C37BD46BDE8F04302B07047704753
:1029D00041747047007C0EF0ADB8007C0DF0A6BFCE
:1029E000007C0EF079B8007C0EF00EB8007C0DF083
:1029F000B1BB10B504460EF03EF9204610BD70B5CF
:102A0000457C04460E4625B9007C0EF093F800285C
:102A100005DD3146207CBDE870400EF009B928463E
:102A200070BD000010B504460846114600226260E1
:102A30004FF47A72A260054A226001222074627407
:102A40001A460DF063FB204610BD00BFA0D90B0055
:102A50000023007C0DF0EEBC0022FFF7F9BF000060
:102A600038B50C4D296811F0010411D128460CF03D
:102A7000FDFC68B1084A094B09482146FFF7D2FF1F
:102A800028460CF055FD074A0749054887F020F80D
:102A9000034838BD584C00205C4C0020D44B00202B
:102AA000C04B00208C630020CF29030010B50446E2
:102AB000FEF748FB013823182046984206D20278D8
:102AC000197800F8011B03F80129F6E710BD70B56D
:102AD0000C46911E222920D82546294610B92344A8
:102AE00030220EE0B0FBF2F602FB1600C1B205F890
:102AF000011B092894BF3031573105F8011C3046BD
:102B0000EBE7994202D201F8012BFAE700232046B5
:102B10000B70FFF7CBFF204670BD002070BD38B5AD
:102B2000031E0C4615460BDAB3F1004F4FF02D0291
:102B300014BF5842184601230A702A46194400E07F
:102B40000123FFF7C4FF204638BD01F0EDBA01F0C4
:102B50000BBB014600228C2001F0DEBA0020FFF7FB
:102B6000F8BF0000044B00204FF6FF721870588029
:102B70009A8019F07FBE00BFE04C0020704710B56E
:102B800004460EF078F8204610BD000070B5084BE2
:102B90000360044600250E4640F80C5F0FF0E1FB91
:102BA000304626710DF0D6F8A560204670BD00BFF6
:102BB000D0D90B0070470A680B4692680146184648
:102BC0001047000010B5054B00220446114640F89E
:102BD000043B29F07BFA204610BD00BFE0D90B0072
:102BE00010B50446FFF7EEFF20460EF044F82046ED
:102BF00010BD000070B50E4C04601C2444609DF8AC
:102C000014409DF8106004F0030444EA8604002593
:102C1000E4B20474427485744161427C85600F2A79
:102C200008BF044BC56006BF8361C061038370BDEC
:102C3000E0D90B00B72B03000022114640681BF0BF
:102C400084BC0022114640681BF07DBC0022406815
:102C50001BF078BC002281F0010140681BF0F8BD38
:102C600000231A46194640681BF0A0BD00231A46EF
:102C7000194640681BF05CBD0022114640681BF0FD
:102C8000E9BB0022114640681BF034BC002202213F
:102C900040681BF0BDBC00231A4640681BF070BEA4
:102CA000024B03225A60024A1A607047E84C002027
:102CB000F4D90B000023036043608360037310B5F5
:102CC0000C6804604C6844608C6884600B604B60E6
:102CD0008B6010BD10B50446006887F0CFFA20461F
:102CE00010BD10B50446006808B187F0C7FA00238C
:102CF0002360A360636010BD38B504460D460068CC
:102D0000013188F017F810B184E82100012038BDA6
:102D100010B50368044613B143688B4207D22046BE
:102D2000FFF7EAFF20B1A3680BB9226813700120F6
:102D300010BD70B50E46114604461546FFF7E8FF74
:102D400018B92046FFF7CDFF09E02A463146A560B5
:102D5000206887F0AAFA2268A3680021D15420468F
:102D600070BD38B50023044603604360836003737D
:102D70000D4639B10846FEF7E5F9294602462046D8
:102D8000FFF7D7FF204638BD884210B50B460446F2
:102D900007D0096819B19A68FFF7CBFF01E0FFF788
:102DA000A0FF204610BD10B5002304460360436019
:102DB00083600373FFF7E8FF204610BD70B504463B
:102DC0000E4609B9002070BD6AB18368D51829463E
:102DD000FFF79EFF0028F5D02068A368314618440D
:102DE00088F0EDF8A560012070BD07B500238DF8CF
:102DF0000410012201A98DF80530FFF7DFFF03B0B1
:102E00005DF804FB00B502388BB00C283BD8DFE836
:102E100000F0070D3A3A3A3A262F353A3A1923008C
:102E20002023029300230393184A04E020230293F3
:102E3000174A002303930092164902AA012029F0A1
:102E400017F820E0144B002283F8242083F82C206C
:102E50009A6283F8252016E06EF09CF913E00E4B81
:102E600001225A706BF0DCFE68B96EF091F90AE04D
:102E70006EF0A2F9084B00225A7004E0064B0222C1
:102E80005A706EF089F90BB05DF804FB0B4C0C0026
:102E9000244C0C00004C0C00304D00202DE9F0417A
:102EA0003E4F3C7894B0002C74D16AF091FE852896
:102EB00010D078B120230C93394B00930CAA3949D8
:102EC0000D943C20234628F0D3FF374A21460A20A0
:102ED00027F074FB00206AF097FE6AF009FF0028D3
:102EE000FBD002AE00240C21304602947460B46022
:102EF0000EF07CFD05AD804621461922284687F05C
:102F0000FAF95FFA88F82146884516D0735C1809EB
:102F100000F13002392A88BF00F1570203F00F0395
:102F200005F8112003F13002392A88BF03F1570256
:102F300005EB410301315A70E6E71C4E32220021B5
:102F4000304687F0D8F940F23233338000242846E7
:102F5000FEF7F8F8844206D201342B1913F8013C2D
:102F600026F81430F3E712486EF088F880B1202379
:102F700000240C930A4B00930CAA0A490D943C20A0
:102F8000234628F075FF084A21460A2027F016FB41
:102F900001233B70002014B0BDE8F081304D0020CB
:102FA0003C4C0C00004C0C0035E703008C720120F7
:102FB000BC4D0C0070B5264C1E46A378012B8AB080
:102FC00015463CD00A460146201D6DF045F9002803
:102FD00037D12946324604F114006DF03DF905461B
:102FE000002831D11B486EF0F1F878B1202302930C
:102FF000194B009302AA194903953C202B4628F04F
:1030000037FF174A29460A2027F0D8FA00200EF089
:103010002DFF6EF0A7F880B12023002502930E4B00
:10302000009302AA0D4903953C202B4628F020FF6F
:103030000B4A29460A2027F0C1FA0123A370002079
:1030400004E04FF0FF3001E06FF001000AB070BD06
:10305000304D00209C4D0C003C4C0C00004C0C00F2
:1030600035E703002DE9F043394D95F824308DB054
:1030700007468846002B66D06B78022B63D1354B10
:103080009B68002B5FD1EFF31083002B5BD1EFF334
:103090001183052B57D8DFF8D8900446E31B43452E
:1030A0001EDA2A8BE9692B6A5B1A9342FAD814F864
:1030B000011B29486DF0DFF80028EFD000262023FF
:1030C000049304AACDF800903346244905963C2089
:1030D00028F0CEFE224A31460A2027F06FFADDE7BB
:1030E00095F8253000208DF80F0003F0FF063BBB5C
:1030F0001C4F19480DF10F01B4B26DF0CEF830B984
:103100009DF80F30F3550136402EF2D1344601239D
:1031100022461449144885F825306FF07FFB80B1B2
:103120000B4B0E49002483F82540202304930F4BBA
:10313000009304AA23463220059428F099FE00E06B
:103140000446204601E04FF0FF300DB0BDE8F083AB
:10315000304D0020A8710120444D0020004C0C008F
:1031600035E70300F04C00209C4D0C00AF4C0C00E8
:10317000604C0C00014B5861704700BFE44D0020CB
:10318000014B5869704700BFE44D00202DE9F04124
:1031900006468CB0042900F2CC80DFE801F08539C6
:1031A0000C2C0300644B1A6B002A00F0C280FFF75E
:1031B000E7FF9047BDE0604C0025012704F11400B3
:1031C00084F8247084F82C50A56284F825506DF0A2
:1031D00086F8201D6DF083F88022584930466FF044
:1031E0003FFB20230493564B009305952B4604AADE
:1031F0005449384655E05049002381F824302022B4
:10320000C86904920A6A0593121A01924E4A13E0A1
:10321000494A92F8241000248DF80F4001F0FF0372
:10322000174681B982F8253020210491D169126AAC
:103230000593521A0192454A0092424904AA01207C
:1032400028F016FE75E0DFF808813B4E0DF10F0106
:1032500006F11400A5B26DF020F840B99DF80F30CA
:1032600004F808300134402CEFD1254603E015B9AD
:1032700086F825505DE001232A463549354887F810
:1032800025306FF0CBFA002853D02B4A2D4900236C
:1032900082F82530202204922F4A0092059304AA36
:1032A000322028F0E5FD44E0234D012785F82C70FD
:1032B0006FF0D3FA2023A8620493AB6A0193002431
:1032C000264B009304AA23461E490594384628F04D
:1032D000CFFDE9682B69AA6A13442A895B1A9342D5
:1032E00027D8DFF85880AB6A1348A34218D918F8DA
:1032F000041004306CF0BFFF80B12023002704933A
:10330000174B009304AA0F4905973C203B4628F031
:10331000AFFD144A39460A2027F050F90134E2E79C
:10332000002380F82C3080228362044930466FF0FD
:1033300097FA0CB0BDE8F081304D0020644D0020BC
:10334000C84C0C00004C0C00DF4C0C00D24C0C00A4
:10335000F04C00209C4D0C00AF4C0C00ED4C0C00D0
:10336000F94C0C0035E70300034AD0681369926AF0
:103370001344181A704700BF304D0020F0B52B4C95
:1033800094F82C308DB0002B2ED0E1682269A36A0E
:10339000134422895B1A934226D8254F0025A36A3D
:1033A0002248AB4217D9795D04306CF064FF80B1DC
:1033B0002023002604931F4B009304AA1E49059660
:1033C0003C20334628F054FD1C4A31460A2027F0A1
:1033D000F5F80135E3E7002380F82C308022836282
:1033E000134917486FF03CFAE268236900259A42B6
:1033F0008DF80F5015D00DF10F0112486CF04DFFF4
:1034000078B120230493104B009304AA0A49059530
:103410003C202B4628F02CFD084A29460A2027F09C
:10342000CDF89DF80F000DB0F0BD00BF304D00206D
:10343000644D0020F94C0C00004C0C0035E70300F3
:103440009C4D0C00344D00204F4D0C0013B502AACA
:103450000024014602F8014D04486CF02FFF10B91A
:103460009DF8070000E0204602B010BD344D00205A
:1034700001486CF034BF00BF444D0020034AD169BD
:10348000108B136A01305B1AC01A7047304D002050
:10349000014B1863704700BF304D0020EFF31180DF
:1034A000402383F31188704780F311887047000030
:1034B0001FB50023039301294FF0050302468DF841
:1034C0000C30094C00FA03F108D16318605A9B785C
:1034D00003A9009105490EF087FD02E0605A0EF045
:1034E000FDFD04B010BD00BF0442002031350300D3
:1034F00010B50D4B03EB401200219180DA783AB9F8
:1035000093F8233003F0FF0213B9084B1A705A6086
:10351000C4B2204600211EF02DFC20460121BDE84A
:103520001040FFF7C5BF00BF04420020684E0020D6
:10353000084BC0B203EB401310B500210124998061
:10354000DC70FFF7B5FF044B1A7812B90A221C7021
:103550005A6010BD04420020684E002008B54001AA
:10356000024B185A0EF0E2F9C0B208BD0442002026
:1035700038B52E4B1A78002A56D05A68002A53D0F4
:103580005A68013A5A60586800284DD10A22284CDE
:103590005A60E3788BB1FFF7E1FF70B9A3889BB263
:1035A00033B9A3880A339BB2A38001211EF0E2FB4A
:1035B000A3880A339BB2A38006E0E37823B11C4BB7
:1035C0000020D870FFF794FF238C194DFF2B1CD0DF
:1035D00095F82330CBB10120FFF7C0FF95F82230DA
:1035E0005A1E5342534198420FD1AB8C9BB23BB908
:1035F000AB8C0A339BB20121AB8408461EF0BAFBA8
:10360000A38C0A339BB2A38438BD228C084BFF2ABB
:103610000AD093F823203AB1002283F82320012016
:10362000BDE83840FFF764BF38BD00BF684E0020DA
:10363000044200202DE9F0411A4C227807468846C2
:1036400002F0FF030AB923706360174D7E01AB19C6
:10365000A85B9B78012B0CBF032102210EF02AF9F5
:10366000B8F1010F03D141463846FFF721FFAB5BAC
:10367000FF2B05EB060812D03846FFF76FFF98F8CE
:1036800002305A1E53425341984208D1012288F811
:1036900003202178034B11B91A700A225A60BDE841
:1036A000F08100BF684E002004420020024B03EB73
:1036B0004010808880B270470442002010B5036833
:1036C0002F2B8AB0044616D920230293002303939C
:1036D0000E4B1BB1AFF30080014600E00C490D4BCF
:1036E000009302AA3C20002328F0C2FB0A4A0021D2
:1036F0000A2026F063FF23681F2B85BF074803F0CD
:103700001F034FF0A04023600AB010BD000000006E
:10371000184E0C001C4E0C0035E70300000300504F
:103720000B4611460246184667F0CCBD2DE9F8431A
:103730009046044689460DF007FFB8F1000F0CBF14
:103740004FF480574FF480370026B4FBF7F47C43E6
:10375000B1450CD02146404667F058FE054638B9C1
:1037600067F056FD0028FBD13C440136F0E7002508
:103770000DF01EFF2846BDE8F883000030B597B075
:1037800016A8112440F8444DFFF798FF059B394DCA
:1037900003F5E073032240F8232016A840F8484DB3
:1037A000FFF78CFF049A01239340C0F8083516A850
:1037B000152340F8403DFFF781FF069B03F5E073BA
:1037C000042240F823200DF0BFFE0FCD09AC0FC43A
:1037D00000222B682360114609A867F049FB0028E6
:1037E00040D120230E93244B0F901BB1AFF30080E8
:1037F000014600E02149224B224C00930EAA0023EF
:10380000012028F035FB206807900022A388ADF83E
:103810002030114607A867F00FFC024630BB54F871
:10382000060F0E9040238DF80F301146A388ADF897
:103830003C300EA867F000FC024698B99923014677
:103840000EA88DF8383067F0F7FB024650B9012317
:103850008DF838300DF10F0102230EA88DF83930A4
:1038600067F0EAFB0DF0A4FE002001E04FF0FF300E
:1038700017B030BD00D50B0000000000184E0C0042
:10388000404E0C0014D50B0030B587B00DF05CFE37
:103890001E4B0022186804909B88ADF81430114626
:1038A00004A867F0C9FB044660BB67F0CFFC06A81C
:1038B000112540F8105DFFF701FF029B03F5E0734F
:1038C000032240F8232006A840F8145DFFF7F6FE17
:1038D000019A01239340C0F8083506A8152340F843
:1038E0000C3DFFF7EBFE039B03F5E073042240F869
:1038F0002320074B4FF40072C3F884210DF058FECB
:10390000204601E04FF0FF3007B030BD20D50B005E
:1039100000E100E073B504460D4616460DF014FEB6
:10392000084B00932046084B324629460DF079FE9D
:10393000044667F06DFC0028FBD10DF039FE2046EF
:1039400002B070BD15160400213703002DE9F347BE
:103950000F4607F1030929F003091646C7EB0904CE
:1039600005460DF0F1FDB44294BF341BB41B34F096
:1039700003041BD025F0030842462146484667F061
:10398000F3FC824660BB67F043FC0028FBD14F4547
:1039900001D1454507D0C8EB0501641A22464944C8
:1039A000384686F08DFC25442744361BBEB1A91944
:1039B00025F003040331091B224621F00301684668
:1039C00067F0D2FC824658B967F022FC0028FBD190
:1039D000291B32466944384686F067FC00E0B2464F
:1039E0000DF0E6FD504602B0BDE8F0870022FFF77B
:1039F0009DBE0128F8B506460C4617461D461DD14A
:103A0000CB18B3F5007F1CD80DF09EFD0022314687
:103A1000B12067F0E7FB30B920462A463946FFF768
:103A200095FF044601E06FF0020400220121C1204D
:103A300067F0D8FB0DF0BCFD2046F8BD4FF0FF301D
:103A4000F8BD6FF00100F8BD08B5054B588B0BF0C1
:103A500020F8012303FA00F0013880B208BD00BF4E
:103A60004442002038B518230C4A58430C46135CD6
:103A7000012B02EB00050FD12B79D9070CD5FFF7ED
:103A8000E3FF2A796B8892074CBF011B2146184639
:103A9000BDE838400BF0E6B838BD00BF4442002016
:103AA00070B50D460646014601201446FFF7DAFFC1
:103AB00029460220FFF7D6FF21460320FFF7D2FF59
:103AC00031460520FFF7CEFF29460620FFF7CAFF43
:103AD00021460720BDE87040FFF7C4BF70B5184D00
:103AE0000646FFF7B1FF2B7F13F0020F0446688BE9
:103AF00004D00AF0C9FF201A80B201E00AF0C4FF26
:103B0000308095F83430688E13F0020F04D00AF03C
:103B1000BBFF201A80B201E00AF0B6FF708095F872
:103B20004C30B5F84A0013F0020F04D00AF0ACFF95
:103B3000201A80B201E00AF0A7FFB08070BD00BF7C
:103B400044420020064B1A7910B9910704D501E0D0
:103B5000920701D4012100E0002158880DF0B9BE80
:103B60004442002010B5064B5C8820460DF0DEFE76
:103B7000B0FA80F149092046BDE810400DF0A9BE19
:103B80004442002038B518230A4A58431518145CDB
:103B9000012C0DD1214668880DF08CFE29796888AA
:103BA000C1F3400101B12146BDE838400DF091BE9E
:103BB00038BD00BF44420020034B1B781BB1034BB0
:103BC000187867F0CFBF7047714E0020704E00200C
:103BD000BFF34F8F0549064BCA6802F4E0621343F6
:103BE000CB60BFF34F8F00BFFDE700BF00ED00E0EB
:103BF0000400FA0534DF704735DF704733DF704764
:103C000070B5EFF3108572B60D4A9468012394B92C
:103C100093600C4B0C49D3F88060314011600A4925
:103C2000C3F88010D3F8841051604FF0FF32C3F80E
:103C30008420047000E0037005B962B6002070BDF6
:103C4000A871012000E100E0FC06FFBD18DF70470D
:103C500013DF704700F1804000F5C040002382B0C0
:103C6000036003680193019B02B0704710B50368BD
:103C70002F2B8AB0044616D92023029300230393E6
:103C80000E4B1BB1AFF30080014600E00C490D4B19
:103C9000009302AA3C20002328F0EAF80A4A0021F7
:103CA0000A2026F08BFC23681F2B85BF074803F0F2
:103CB0001F034FF0A04023600AB010BD00000000B9
:103CC000184E0C001C4E0C0035E70300000300509A
:103CD00008B56EF0ABFEBDE808401EF0ABB80000C2
:103CE00073B5144B5B68C3F3080304460E46EBB987
:103CF00002AD042245F8043D40F2DA6029460BF09B
:103D0000F8F8A8B9019B23420CBF01220022B2425D
:103D10000ED016B123EA040400E01C43042240F252
:103D2000DA61284601940BF017F901E04FF0FF30FB
:103D300002B070BD00ED00E000B58DB00DF004FCE8
:103D4000002108460EF04DFB0CA8002400F8254D7C
:103D5000FFF756FF2A4A136823F001031360FFF7A9
:103D600093FD66F06FF8274BC3F800450EF0B8F9E5
:103D7000254B4FF00042C3F808234FF4BE70FFF705
:103D800069FF00F093FB90F8813090F8802003F0F9
:103D90001F030CA843EA421340F8243DFFF766FFD7
:103DA000039B1A4A03F5E07340F82320184BC3F82D
:103DB000004503F5A043C3F8004503F58053C3F85D
:103DC000004503F53043C3F80045FFF717FFA8B1DE
:103DD000202304930F4B05941BB1AFF300800146E1
:103DE00000E00D490D4B009304AA3C20002328F06D
:103DF0003FF80B4A00210A2026F0E0FBFEE700BF57
:103E000010E000E0003001400060004004000200CB
:103E100000C0014000000000184E0C00524E0C0083
:103E200035E703001EF0040F0CBFEFF30880EFF33B
:103E300009808169004A1047593F030000B58FB0DF
:103E4000039004910592039B049B059B20230693FA
:103E500000230793094B1BB1AFF30080014600E03C
:103E60000749084B009306AA3C20002328F000F8DD
:103E7000054A0021012026F0A1FBFEE7000000001A
:103E8000184E0C00884E0C0035E7030000B58BB0CF
:103E90002023029300230393094B1BB1AFF300804F
:103EA000014600E00749084B009302AA3C2000238A
:103EB00027F0DEFF054A0021012026F07FFBFEE708
:103EC00000000000184E0C00884E0C0035E703007F
:103ED00000B58BB02023029300230393094B1BB141
:103EE000AFF30080014600E00749084B009302AAA7
:103EF0003C20002327F0BCFF054A0021042026F0C7
:103F00005DFBFEE700000000184E0C009C4E0C000C
:103F100035E7030000B58BB0202302930023039301
:103F2000094B1BB1AFF30080014600E00749084B85
:103F3000009302AA3C20002327F09AFF054A0021A3
:103F4000052026F03BFBFEE700000000184E0C00A9
:103F5000A54E0C0035E7030000B593B0036802934B
:103F60004368039383680493C368059303690693C6
:103F70004369079383690893C36909930E4B9B6A4E
:103F800013F0007301D0FFF7C5FF0B930B4B2022FA
:103F90000A921BB1AFF30080014600E00849094BCB
:103FA00000930AAA3C20002327F062FF064A002162
:103FB000012026F003FBFEE700ED00E0000000001A
:103FC000184E0C00884E0C0035E70300014B024AE6
:103FD000DA63704700400020D13C030010B54FF079
:103FE00000531A4A1A604FF0FF325A60184B8EB0D5
:103FF00000249C601022214602A886F07CF902234E
:1040000002A80293FFF722FEA8B120230693114BCA
:1040100007941BB1AFF30080014600E00E490F4B3F
:10402000009306AA3C20002327F022FF0C4A00211F
:104030000A2026F0C3FA0548FFF70AFE6BF018FFC6
:104040006BF094FF0028FBD00EB010BD00400020A4
:1040500000ED00E000000000184E0C003C4C0C008D
:1040600035E703001FB504200AF0FEFD184B19497F
:1040700001221A70184B194A1846D21A86F015F9FF
:10408000174A90602CF0DAFB002004F013FCFFF7D5
:10409000A5FF0BF0E5FA09F045F82CF0ADFC6FF048
:1040A0007F4026F033FBE72026F096FB4FF44421B7
:1040B00003220E238DE80E0000224FF440334FF010
:1040C000915110462CF058FD05B05DF804FB00BF7F
:1040D00098B50020000003000040002000420020AE
:1040E00000ED00E008B509F05FFA08B1FFF770FDD8
:1040F00008BD38B505460020FFF7D8FA0446012070
:10410000FFF7D4FA854204D9AC4234BF0020012025
:1041100038BD012038BD000008B5024B58609960D9
:10412000FFF756FD80F3032008B5074B6FF05502EB
:104130001A735A732CF07CFC044B64225A600022E0
:104140009A60FFF745FD00BFC0F3032080F3032012
:1041500008B5044B45F6FE206E21002283E80700D7
:10416000FFF736FD80F3032008B50B4C50B14FF636
:10417000FF736362094B4FF0FF321A725A722CF0D0
:1041800057FC02E04EF6FA53236078236360002365
:10419000A360FFF71DFD00BF80F30320C0F30320E1
:1041A00008B518B9CB0701D4FFF7C6FD6FF077004B
:1041B00008BD000007B5154A526901920132034655
:1041C00002D101A8FFF716FD581E052819D8DFE80F
:1041D00000F00306090C13130198012808E0019868
:1041E000042805E00198022802E00198B0F5803F1C
:1041F00014BF0020012005E00198B0FA80F04009CA
:1042000000E0002003B05DF804FB00BFC0F3032012
:1042100010B1044B1B68036011B1024B5B680B606B
:1042200000207047784E002000222CF013BC70470D
:1042300010B5064B1A681C4632B14FF0FF312068AA
:1042400040F0A6FC0028F8D010BD00BF744E00203E
:10425000024B186808B140F01EBB7047744E002036
:104260001E4B10B501241C70FFF73CFF0220FFF726
:10427000A1FF1B4940B11B4B5A680A609A684A600B
:1042800000225A609A6021E00320FFF793FF08B1F3
:104290003C2318E00420FFF78DFF08B11E2312E035
:1042A0000520FFF787FF08B128230CE00620FFF761
:1042B00081FF08B1322306E02046FFF77BFF08B1FB
:1042C000142300E00A230B6000234B604FF0FF3003
:1042D000FFF792FCBDE810401DF064BF724E002055
:1042E000784E002080F30320FFF7BABF07B5042003
:1042F00040F0B4FA074B08491860084B01930223B9
:1043000000934FF4C0620023054840F030FE40F0B7
:10431000EDFEFEE7744E0020D54E0C00804E0020CE
:10432000E9420300042807B50DD006280DD0032864
:104330000FD102A84B4200F8013D012240F6A13105
:104340000AF00AFE07E0012000E00220FFF7C8FCA7
:1043500001E04FF0FF3003B05DF804FB032807B520
:1043600017D3042817D9062813D10D4B5B68C3F364
:10437000080373B902A9042241F8043D40F2DA604F
:104380000AF0B7FD28B9019880F00200C0F34000A0
:1043900002E0002000E0012003B05DF804FB00BF54
:1043A00000ED00E0013809289CBF024B43F82010C3
:1043B000704700BF80F30320013809289ABF034BE0
:1043C00053F820004FF0FF30704700BF80F3032008
:1043D00010B58AB00446684685F096FF089B636076
:1043E00023880F2B17D90D480D49132BA0EB010182
:1043F000E16010D9009A2261172B0CD9059A6261ED
:104400001B2B08D9074A1F2BA2EB0002A26102D97D
:1044100004F064FCE06100200AB010BD00E8032055
:10442000DC72012000E8032020B1012805D1044BF3
:10443000987C7047024B988870470020704700BFF7
:10444000C0F3032072B600207047000010B5044688
:1044500030B9DC2A04D1044885F027FF204610BD7E
:104460004FF0FF3010BD00BF00F0032038B50D46FF
:10447000044658B9DB2A09D906490A88DC2A05D13D
:104480001A60284685F011FF204638BD4FF0FF30F6
:1044900038BD00BF00F0032010B1024B1B68036061
:1044A00001487047FC4B0C0020DA0B0000487047B5
:1044B00004430020232838B50D460AD8054B03EBEA
:1044C0000014E3788B4203D0062B01D10AF0AAFA3C
:1044D000E57038BD0443002013B5104C1346227814
:1044E000BAB90122227000940A4601460C486BF0CA
:1044F00080F948B92378012BFCD0084B187800309C
:1045000018BF0120404201E04FF0FF30002323702C
:1045100001E04FF0FF3002B010BD00BF844E00201C
:104520004445002010B543688EB0044613B32023E1
:10453000069300230793114B1BB1AFF30080014694
:1045400000E00F4920780F4A0F4B012808BF13469F
:1045500022690492A2680392019362680B4B029253
:10456000009306AA0023322027F082FC636902220E
:104570001A7001E0426913700EB010BD0000000017
:10458000184E0C0055BD0D00104F0C00164F0C00BE
:1045900030B58DB00DF0DEFF00221F491F48204DC1
:1045A0006BF01EF9202304930023044605931DB1EC
:1045B000AFF30080014600E01A49184B5A681268B0
:1045C00003921A690292DB680193174B009304AAC5
:1045D0000023012027F04CFC2023049300230593A3
:1045E0001DB1AFF30080014600E00E490F4A104BA9
:1045F000002C18BF134601930E4B009304AA00230E
:10460000012027F035FC0DF0CDFF201C18BF012044
:1046100040420DB030BD00BFCC780D0044450020B5
:1046200000000000184E0C004B4F0C00C04C0C005A
:1046300024210D00744F0C0073B504460D46164638
:104640000DF088FF064B00933246064B2946204664
:104650000CF0E7FF04460DF0A5FF204602B070BD48
:1046600015160400D94403002DE9F041164C074605
:1046700088460DF06FFF2378254603F0FF06E3B967
:10468000012327F47F6123704246234621F00F0166
:104690000E486BF0E6F818B126706FF001040EE0DA
:1046A0002A78094B012AFBD01A7802F0FF0432B1B4
:1046B00000221A706FF0020401E04FF0FF340DF099
:1046C00071FF2046BDE8F081844E00204445002063
:1046D00070B505460C4616460DF03CFF324629469D
:1046E000204685F0E2FD0DF05DFF002070BD0368FF
:1046F0000B4403601078994294BF0346431C137027
:104700007047036810B514788B4238BF013C1470B1
:1047100003685B1A036010BD30B58FB00123002120
:104720000446029305A8092324228DF8031003935D
:10473000049085F0E0FD1021204679F00CFB054641
:10474000002840F04D82A3681A68196A019201A8F6
:104750000DF10302FFF7CBFFA3680DF10302596AC5
:1047600001A8FFF7C4FFA3680DF10302D96A01A8ED
:10477000FFF7C7FFA3680DF10302196B01A8FFF74C
:10478000C0FFA3680DF10302596B01A8FFF7B9FF41
:10479000A3680DF10302996B01A8FFF7B2FFA368AC
:1047A000019A1A609DF90310A3688DF803505B68A5
:1047B000019300290DF1030204DA494201A8FFF731
:1047C000A0FF02E001A8FFF792FFA3680DF103022A
:1047D000596A01A8FFF78BFFA3680DF10302996ADC
:1047E00001A8FFF784FFA3680DF10302196B01A86C
:1047F000FFF787FFA3680DF10302596B01A8FFF7CC
:1048000080FFA3680DF10302996B01A8FFF779FF00
:10481000A3680DF10302D96B01A8FFF772FFA3682B
:10482000019A5A60A3689DF903109B6801930023C5
:1048300099428DF803300DF1030204DA494201A8D0
:10484000FFF75FFF02E001A8FFF751FFA3680DF13A
:104850000302996A01A8FFF74AFFA3680DF103025A
:10486000D96A01A8FFF743FFA3680DF10302596B52
:1048700001A8FFF746FFA3680DF10302996B01A899
:10488000FFF73FFFA3680DF10302D96B01A8FFF703
:1048900038FFA368019A9A60A3689DF90310DB684A
:1048A0000193002399428DF803300DF1030204DADD
:1048B000494201A8FFF725FF02E001A8FFF717FF13
:1048C000A3680DF10302D96A01A8FFF710FFA368DE
:1048D0000DF10302D96A01A8FFF709FFA3680DF1E2
:1048E0000302196B01A8FFF702FFA3680DF1030291
:1048F000196B01A8FFF7FBFEA3680DF10302596BCA
:1049000001A8FFF7F4FEA3680DF10302D96B01A81B
:10491000FFF7F7FEA3680DF10302196A01A8FFF77C
:10492000F0FEA3680DF10302596A01A8FFF7E9FE42
:10493000A368019ADA60A3689DF903101B690193CB
:10494000002399428DF803300DF1030204DA494245
:1049500001A8FFF7D6FE02E001A8FFF7C8FEA36892
:104960000DF10302196B01A8FFF7C1FEA3680DF159
:104970000302196B01A8FFF7BAFEA3680DF1030249
:10498000596B01A8FFF7B3FEA3680DF10302596B41
:1049900001A8FFF7ACFEA3680DF10302996B01A813
:1049A000FFF7A5FEA3680DF10302596A01A8FFF7FE
:1049B000A8FEA3680DF10302996A01A8FFF7A1FE02
:1049C000A368019A1A61A3689DF903105B690193BA
:1049D000002399428DF803300DF1030204DA4942B5
:1049E00001A8FFF78EFE02E001A8FFF780FEA36892
:1049F0000DF10302596B01A8FFF779FEA3680DF1D1
:104A00000302596B01A8FFF772FEA3680DF10302C0
:104A1000996B01A8FFF76BFEA3680DF10302996B78
:104A200001A8FFF764FEA3680DF10302D96B01A88A
:104A3000FFF75DFEA3680DF10302996A01A8FFF775
:104A400060FEA3680DF10302D96A01A8FFF759FEC1
:104A5000A368019A5A61A3689DF903109B690193A9
:104A6000002399428DF803300DF1030204DA494224
:104A700001A8FFF746FE02E001A8FFF738FEA36891
:104A80000DF10302996B01A8FFF731FEA3680DF148
:104A90000302996B01A8FFF72AFEA3680DF1030238
:104AA000D96B01A8FFF723FEA3680DF10302D96BB0
:104AB00001A8FFF71CFEA3680DF10302996B01A882
:104AC000FFF715FEA3680DF10302596B01A8FFF76C
:104AD0000EFEA3680DF10302196A01A8FFF711FE8B
:104AE000A3680DF10302596A01A8FFF70AFEA36843
:104AF000019A9A61A3689DF90310DB690193002371
:104B000099428DF803300DF1030204DA494201A8FD
:104B1000FFF7F7FD02E001A8FFF7E9FDA3680DF13B
:104B20000302D96B01A8FFF7E2FDA3680DF10302B0
:104B3000D96B01A8FFF7DBFDA3680DF10302D96B68
:104B400001A8FFF7D4FDA3680DF10302196A01A8BB
:104B5000FFF7CDFDA3680DF10302996A01A8FFF7E5
:104B6000D0FDA3680DF10302D96A01A8FFF7C9FDC2
:104B7000A3680DF10302196B01A8FFF7C2FDA3683A
:104B80000DF10302596B01A8FFF7BBFDA368019A61
:104B9000DA619DF90330A26823EAE373136200230C
:104BA0000193082362680133934204D2A2680199F9
:104BB00042F82310F6E79DF90320002A10DA039B40
:104BC000049903F18043013B524241F823202046DF
:104BD000224602A979F02FFC10B94FF0FF33236071
:104BE00028460FB030BD000038B50D46044601F030
:104BF0004BF9032D257027D1164B174A6366E260E7
:104C00000823164AA360236262622365E362A363FA
:104C1000134A144B62650125134AE363134B226365
:104C2000A3646560E561E564A56265632564656408
:104C3000201D79F09EF9A06504F14C0079F099F9F6
:104C40002566E065002038BD204601F01DF90848C2
:104C500038BD00BF194703000C500C008C4F0C00EE
:104C6000CC4F0C00AC4F0C00EC4F0C005845002012
:104C700080B1FFFF08B50DF09BFC044B0122C3F887
:104C80000025034B4FF480625A6008BD00A002501B
:104C900000E100E0064B0022C3F80025054B4FF46D
:104CA0008062C3F88420C3F884210DF087BC00BF64
:104CB00000A0025000E100E0F422002185F01BBBBF
:104CC00010B50446FFF7D6FF204680F03DFEBDE854
:104CD0001040FFF7DFBFF42285F0E7BA10B50446B5
:104CE00009B1012300E00223C4F8F030FFF7C2FF4E
:104CF000D4F8F010204680F043FD0446FFF7CAFFC9
:104D0000204610BD70B504460D461646FFF7B2FFAB
:104D100032462946204680F097FD0446FFF7BAFF49
:104D2000204670BD70B590B0402204460E466846DD
:104D3000002185F0E0FAFFF79DFF6946204680F0EC
:104D4000B5FD0546FFF7A6FFD4F8F030012B14BFE0
:104D500020221C226946304685F0A7FA284610B06A
:104D600070BD4022FFF7CEBF08B50DF021FC044B0B
:104D70000122C3F80025034B4FF480625A6008BD3E
:104D800000A0025000E100E0064B0022C3F800251D
:104D9000054B4FF48062C3F88420C3F884210DF0E2
:104DA0000DBC00BF00A0025000E100E070B5051D81
:104DB00004460E464C220021284685F09CFA04F158
:104DC00050032367A667FFF7CFFF0023314628462D
:104DD0001A4682F07DFEBDE87040FFF7D5BF10B5E2
:104DE000002104464FF4CA7285F085FA204600215E
:104DF000BDE81040FFF7DABF10B50446FFF7B4FF77
:104E0000201D82F0A5FFBDE81040FFF7BDBF38B5FB
:104E100007320446D20825464267503045F8700FE5
:104E200085F043FAFFF7A0FF08232A460021201D42
:104E300082F08CFE0446FFF7A7FF204638BD01290B
:104E4000F8B5044616461F4600F1040502D1836FEB
:104E50008BB903E011B9836F012B0ED1FFF784FFEB
:104E60003B4610223146284682F0AEFE0446FFF74C
:104E70008BFF2046F8BD002100E001212046FFF70E
:104E800095FFFFF771FF04F1700208230021284607
:104E900082F05CFE0446FFF777FF002CDED0E8E7E7
:104EA0004FF4CA72002185F026BAFFF7F9BF00005F
:104EB000C02AF0B507D0B2F5807F06D0802A40F036
:104EC000DC800A2302E00C2300E00E23C36700F11C
:104ED0008403C0F8803052090024944210D001EBC2
:104EE0008407BD787E782D0445EA062511F82460F4
:104EF0003543FE7845EA066543F824500134ECE773
:104F0000C26F0C2A31D00E2A66D00A2A40F0B8802F
:104F10005C4F5D4E0025DC681A6857F8251051403B
:104F2000C4F307220135B05C220E4140B25C81EA35
:104F30000241E2B20A2DB25C81EA0261C4F3074287
:104F400003F11003B25C81EA022253F80C1C1A60D0
:104F500082EA010253F8081C5A6082EA01029A6050
:104F600082EA0402DA60D6D18AE0464E464D002439
:104F7000586956F824101A684A40C0F307210134D2
:104F8000695C4A40010E082C695C82EA0142C1B2A8
:104F900003F11803695C82EA0162C0F30741695CAE
:104FA00082EA012253F8141C1A6082EA010253F8C3
:104FB000101C5A6082EA010253F80C1C9A6082EAC3
:104FC000010253F8081CDA6082EA01021A6182EADF
:104FD00000025A61CCD153E02A4E2B480025DC69EF
:104FE0001A6856F825105F685140C4F3072201354E
:104FF000825C5140220E072D825C81EA0241E2B2BE
:1050000003F12003825C81EA0261C4F30742825CFF
:1050100081EA022153F8182C196081EA070153F83C
:10502000147C596081EA020187EA0107FAB29960AB
:10503000825C53F8101CDF6081EA02014FEA1762BC
:10504000825C81EA0261C7F30722C7F30747825CEB
:1050500081EA0221C25D81EA024253F80C1C1A6106
:1050600082EA010253F8081C5A6182EA01029A613D
:1050700082EA0402DA61B2D102E06FF01F00F0BDF3
:105080000020F0BD2C510C002C500C002DE9F04FED
:10509000D0F880300D681C688E68C06FDFF884A37C
:1050A000DFF878E385EA040B4D685C686C409D6826
:1050B00085B075404010CE68D968013871400190C4
:1050C000D44E53F8100F02900198DFF85883DFF8A0
:1050D00048C300284FEA11601F465FFA8BF903F1BD
:1050E0002003039040F3BF80CB48039F5AF82980E8
:1050F00050F8277088EA070853F8207C88EA0708E8
:10510000C4F30727C5F3074C56F8277088EA07074A
:105110005EF82C805FFA84FC87EA08084FEA1B6778
:105120005AF82C9050F82770C5F3072C89EA070924
:1051300053F81C7C89EA070756F82C90C1F3074CFA
:1051400087EA09075EF82C905FFA85FC87EA09096F
:10515000270E5AF82CC050F827708CEA070C53F829
:10516000187C8CEA0707C1F3072C2D0E56F82CC0CB
:1051700050F8255087EA0C07C9B2CBF3074C5AF810
:1051800021105EF82CC087EA0C0781EA050CCBF3EE
:10519000072553F8141C56F82550C4F307448CEA2D
:1051A00001015EF82440694081EA040C4FEA1C6169
:1051B0005FFA88F450F821105AF82440614053F8FF
:1051C000104C4C40C9F30721FDB256F821105AF893
:1051D00025504C40C7F307415EF8211084EA010BCB
:1051E0005FFA89F44FEA18615AF8244050F8211008
:1051F000614053F80C4C4C40C7F307213F0E56F862
:1052000021104C40CCF307415EF821104C404FEA8E
:105210001961C9F3074950F8211050F827704D4023
:1052200053F8081C6940CCF307255FFA8CFC56F84C
:1052300025506940C8F30745C8F307285EF8255094
:105240004D405AF82C104F4053F8041C794056F842
:10525000287079405EF829707940019F013F0197DD
:105260001F68029730E70B0E58F829005CF82330CE
:10527000DFF8A0E1694E4340029883EA0009C4F3D5
:105280000723E0B25EF8233058F8200089EA0309CA
:10529000C5F307435FFA85FA56F8233058F82AA079
:1052A00089EA03094FEA1B635CF8233058407B68A6
:1052B0004340C5F307202D0E5EF820004340C1F3A4
:1052C000074056F820004340200EC4F307445CF822
:1052D000200056F824408AEA000AB8688AEA0000EA
:1052E000C1F3072AC9B25EF82AA058F821805CF8F9
:1052F000251088EA0105F9686940CBF3072580EAA3
:105300000A005EF82550694061405FFA89F5444C17
:10531000CBF3074A14F805E056F82AA03D690E0EB3
:105320008EEA050514F806E0C3F3072680EA0A00B2
:1053300085EA0E6514F806E0C0F3074685EA0E25F7
:1053400014F806E085EA0E4EDDB2665D7D697540B3
:105350004FEA1966A65D85EA0665C0F30726A65DD5
:1053600085EA0625C1F30746A65D85EA0646C5B26D
:10537000000E14F805C0BD698CEA05054FEA136CF0
:10538000C3F3074314F80CC0205CE35C85EA0C65AA
:10539000C1F3072CC9B214F80CC085EA0C25C9F377
:1053A000074CC9F3072914F80CC085EA0C4514F81A
:1053B00001C0F96982F800E08CEA010181EA00612C
:1053C00014F80900167181EA002181EA03434FEACB
:1053D0001E2151704FEA1E419170310A5171310CFA
:1053E0009171290A5172290C9172190A4FEA1E6EA5
:1053F000360E157213732D0E51730020190C1B0EEF
:1054000082F803E0D671D5729173D37305B0BDE80D
:10541000F08F00BF54550C00545D0C0054590C0023
:105420002C500C0054510C0011461A46FFF72EBEAA
:1054300008B50DF0BDF8044B0122C3F80025034B5D
:105440004FF480625A6008BD00A0025000E100E005
:10545000064B0022C3F80025054B4FF48062C3F8C9
:105460008420C3F884210DF0A9B800BF00A0025029
:1054700000E100E0F022002184F03DBF10B50446B9
:1054800068B1FFF7D5FF204680F05EFAFFF7E0FF36
:105490002046F0220021BDE8104084F02CBF10BD52
:1054A000F02284F002BF10B50446FFF7C1FF0021CF
:1054B000204680F065F90446FFF7CAFF204610BD7C
:1054C00070B504460D461646FFF7B2FF3246294630
:1054D000204680F0B9F90446FFF7BAFF204670BDB8
:1054E00070B590B0402205460C466846002184F015
:1054F00002FFFFF79DFF6946284680F0D7F904AE0A
:105500000546FFF7A5FF6B4622461C4603CCB44276
:1055100010605160234602F10802F6D12068106045
:10552000284610B070BD4022FFF7CABF70B500EB2F
:1055300081024E080023B342A2F1040209D050F8C0
:105540002340156824BA2DBA40F823501460013363
:10555000F1E7CA0741BF013350F8232012BA40F8DF
:10556000232070BD036B2BB1C36B002B0CBF02203B
:1055700001207047184670477FB50C4605460C342D
:1055800001A8164678F0CAFB291D224601A878F02A
:10559000B3FF054668B90146204678F0DCFE01A954
:1055A00000280CBF002206F00102204678F066FCBD
:1055B000054601A878F0B9FB284604B070BD00008C
:1055C00038B54B6E04460D462BB90A1DBDE8384070
:1055D000014679F01BBA0368002B07DB204678F000
:1055E000C8FCAB6DB0EB430F07D904E0002178F0A5
:1055F000B2FE0028F2D0124838BD6B6E20469847A4
:10560000E8B904352368002B12DA0021204678F02F
:10561000A2FE68B12A462146204678F04CFF0028B9
:10562000F0D00CE02A462146204678F004FF30B93D
:105630002946204678F04AFE0028F3DA002038BDDB
:1056400080B0FFFF2DE9F04F8DB0064603AD6846F0
:105650008946904678F062FB284678F05FFB06A802
:1056600078F05CFB09A878F059FBB369002B69D18D
:1056700008F118021146284678F08CFF04460028ED
:1056800040F0068231462846FFF79AFF044600287C
:1056900040F0FE812A46414606A878F00CFF0446F9
:1056A000002840F0F581371D394606A878F00EFE37
:1056B000002808DB06A93A46084678F0BCFE0446F6
:1056C0000028F1D0E4E12A46414609A878F014FF09
:1056D0000446002840F0DC81099B002B09DB09AA65
:1056E00006A9284678F056FF0446002840F0D081ED
:1056F0000BE0002109A878F02EFE0028EFD009A9C0
:105700003A46084678F0D7FEE2E731462846FFF7EA
:1057100057FF0446002840F0BB8103222946684613
:1057200078F0A7FF0446002840F0B2813946684669
:1057300078F0CCFD00282DDB3A466946684678F0C3
:105740007AFEEFE742464146284678F023FF0446BA
:10575000002840F09D8131462846FFF731FF04467E
:10576000002840F0958103222946684678F081FFA1
:105770000446002840F08C81371D3946684678F091
:10578000A5FD002812DA06F1100A0021504678F033
:10579000E2FDA0B908F10C0A5246514606A878F07D
:1057A000F9FE0446002840F0738151E03A4669460C
:1057B000684678F040FE04460028DED068E108F133
:1057C00018021146284678F0E5FE0446002840F00D
:1057D0005F8131462846FFF7F3FE0446002840F07B
:1057E00057812A46294606A878F0D4FE04460028A8
:1057F00040F04E81314606A8FFF7E2FE044600283D
:1058000040F04681524606A9284678F0C3FE044679
:10581000002840F03D8131462846FFF7D1FE04467E
:10582000002840F035812A466946684678F043FEF4
:105830000446002840F02C813946684678F046FD41
:105840000028A7DB3A466946684678F0F4FDEFE7A2
:10585000314606A8FFF7B4FE0446002840F0188140
:10586000012106A878F003FC0446002840F01081CE
:10587000371D394606A878F029FD002808DB06A95F
:105880003A46084678F0D7FD04460028F1D0FFE0FC
:1058900006AA4146284678F07DFE0446002840F0DE
:1058A000F78031462846FFF78BFE0446002840F07B
:1058B000EF800121284678F0DAFB0446002840F00A
:1058C000E7803946284678F001FD002805DB3A4696
:1058D0002946284678F0AFFDEFE706AA114609A849
:1058E00078F058FE0446002840F0D280314609A8DE
:1058F000FFF766FE0446002840F0CA80012109A88F
:1059000078F0B5FB0446002840F0C280394609A86B
:1059100078F0DCFC002805DB09A93A46084678F057
:105920008AFDEFE76A46694606A878F033FE04462A
:10593000002840F0AD80314606A8FFF741FE04463E
:10594000002840F0A58006A92A46084678F0D4FD34
:105950000446002840F09C80069B002B05DB06A92E
:105960002A46084678F0C8FD18E0002106A878F01D
:10597000F2FC0028F3D006A93A46084678F09BFDD1
:10598000E6E7069B002B0DDA002106A878F0E3FC81
:1059900040B106A93A46084678F08DFD0446002835
:1059A000EFD075E006AA2946284678F0A5FD0CE060
:1059B000039B002B0DDA0021284678F0CCFC40B187
:1059C0003A462946284678F076FD04460028EFD06E
:1059D0005EE06A462946284678F0DCFD0446002849
:1059E00056D131462846FFF7EBFD044600284FD13B
:1059F00009AA2946284678F07FFD0446002847D1A9
:105A0000AB46039B002B09DB08F11802514609A89D
:105A100078F0C0FD044600283AD10EE00021584637
:105A200078F099FC0028EFD03A465946584678F06D
:105A300042FD04460028E4D02AE0314609A8FFF7D9
:105A4000BFFD044620BB012109A878F010FB0446E5
:105A5000F0B9394609A878F039FC002805DB09A916
:105A60003A46084678F0E7FCF1E706A9484678F0A0
:105A7000D9F9044660B903A909F10C0078F0D2F90C
:105A8000044628B909A909F1180078F0CBF90446B1
:105A9000684678F04AF9284678F047F906A878F081
:105AA00044F909A878F041F920460DB0BDE8F08F1F
:105AB000F0B501F1180787B006460D4638460021BB
:105AC00078F049FC00284DD0684678F027F903A803
:105AD00078F024F9321D3946684679F0DBFB04463C
